:020000040800F2
:100000000030002085AC0008551A0008571A000877
:10001000591A00085B1A00085D1A00080000000069
:10002000000000000000000000000000F15900087E
:100030005F1A000800000000915A0008F55A0008F5
:10004000D5AC0008D5AC0008D5AC0008D5AC00088C
:10005000D5AC0008D5AC0008D5AC0008D5AC00087C
:10006000D5AC0008D5AC0008D5AC0008D5AC00086C
:10007000D5AC0008D5AC0008D5AC0008D5AC00085C
:10008000D5AC0008611A0008D5AC0008711A000848
:10009000811A0008911A0008D5AC0008D5AC0008F8
:1000A000D5AC0008A11A0008B11A0008D5AC0008A8
:1000B000C11A0008D5AC000800000000D5AC00084B
:1000C000D5AC00080000000000000000D5AC00081E
:1000D00000000000D5AC0008D5AC0008D5AC000885
:1000E000D5AC0008D5AC00080000000000000000FE
:1000F0000000000000000000000000000000000000
:1001000000000000000000000000000000000000EF
:100110000000000000000000D11A0008D5AC000863
:1001200000000000000000000000000000000000CF
:1001300000000000000000000000000000000000BF
:10014000D5AC0008D5AC000800000000000000009D
:10015000000000000000000000000000000000009F
:10016000000000000000000000000000000000008F
:10017000000000000000000000000000000000007F
:0801800000000000D5AC0008EE
:1001900010B5054C237833B9044B13B10448AFF3C1
:1001A00000800123237010BDA80200200000000081
:1001B00078BE000808B5034B1BB103490348AFF3F1
:1001C000008008BD00000000AC02002078BE0008DE
:1001D000034613F8012B002AFBD1181A0138704787
:1001E00001F0FF01102A2BDB10F0070F08D010F8E8
:1001F000013B013A8B422DD010F0070F42B3F6D1EC
:10020000F0B441EA012141EA014122F007047FF004
:1002100000070023F0E80256083C85EA010586EA5B
:10022000010685FA47F5A3FA87F586FA47F6A5FA97
:1002300087F68EB9EED1F0BC01F0FF0102F00702A3
:1002400032B110F8013B013A83EA010313B1F8D14E
:100250000020704701387047002D06BF354603382F
:10026000073815F0010F07D1013015F4807F02BF68
:10027000013015F4C03F0130F0BC0138704700BFB9
:1002800081F0004102E000BF83F0004330B54FEA47
:1002900041044FEA430594EA050F08BF90EA020FB4
:1002A0001FBF54EA000C55EA020C7FEA645C7FEA47
:1002B000655C00F0E2804FEA5454D4EB5555B8BF6A
:1002C0006D420CDD2C4480EA020281EA030382EADB
:1002D000000083EA010180EA020281EA0303362D6D
:1002E00088BF30BD11F0004F4FEA01314FF4801C40
:1002F0004CEA113102D0404261EB410113F0004F52
:100300004FEA03334CEA133302D0524263EB430308
:1003100094EA050F00F0A780A4F10104D5F1200EA6
:100320000DDB02FA0EFC22FA05F2801841F1000101
:1003300003FA0EF2801843FA05F359410EE0A5F1D5
:1003400020050EF1200E012A03FA0EFC28BF4CF006
:10035000020C43FA05F3C01851EBE37101F00045BC
:1003600007D54FF0000EDCF1000C7EEB00006EEBC9
:100370000101B1F5801F1BD3B1F5001F0CD3490853
:100380005FEA30004FEA3C0C04F101044FEA4452AA
:1003900012F5800F80F09A80BCF1004F08BF5FEA31
:1003A000500C50F1000041EB045141EA050130BD11
:1003B0005FEA4C0C404141EB0101013C28BFB1F523
:1003C000801FE9D291F0000F04BF01460020B1FA6E
:1003D00081F308BF2033A3F10B03B3F120020CDA41
:1003E0000C3208DD02F1140CC2F10C0201FA0CF01F
:1003F00021FA02F10CE002F11402D8BFC2F1200C84
:1004000001FA02F120FA0CFCDCBF41EA0C01904039
:10041000E41AA2BF01EB0451294330BD6FEA040482
:100420001F3C1CDA0C340EDC04F11404C4F120026D
:1004300020FA04F001FA02F340EA030021FA04F37F
:1004400045EA030130BDC4F10C04C4F1200220FAD6
:1004500002F001FA04F340EA0300294630BD21FA14
:1004600004F0294630BD94F0000F83F4801306BFDA
:1004700081F480110134013D4EE77FEA645C18BFCE
:100480007FEA655C29D094EA050F08BF90EA020F65
:1004900005D054EA000C04BF1946104630BD91EA5D
:1004A000030F1EBF0021002030BD5FEA545C05D160
:1004B0004000494128BF41F0004130BD14F580049F
:1004C0003CBF01F5801130BD01F0004545F0FE4113
:1004D00041F470014FF0000030BD7FEA645C1ABF48
:1004E000194610467FEA655C1CBF0B46024650EA7F
:1004F000013406BF52EA033591EA030F41F40021AB
:1005000030BD00BF90F0000F04BF0021704730B530
:100510004FF4806404F132044FF000054FF0000105
:1005200050E700BF90F0000F04BF0021704730B5C6
:100530004FF4806404F1320410F0004548BF40429B
:100540004FF000013EE700BF42004FEAE2014FEAF0
:1005500031014FEA02701FBF12F07F4393F07F4FCB
:1005600081F06051704732F07F4208BF704793F0CE
:100570007F4F04BF41F40021704730B54FF46074E1
:1005800001F0004521F000411CE700BF50EA0102E4
:1005900008BF704730B54FF000050AE050EA01028D
:1005A00008BF704730B511F0004502D5404261EBFD
:1005B00041014FF4806404F132045FEA915C3FF43E
:1005C000D8AE4FF003025FEADC0C18BF03325FEADB
:1005D000DC0C18BF033202EBDC02C2F1200300FA8C
:1005E00003FC20FA02F001FA03FE40EA0E0021FAB1
:1005F00002F11444BDE600BF70B54FF0FF0C4CF49F
:10060000E06C1CEA11541DBF1CEA135594EA0C0F50
:1006100095EA0C0F00F0DEF82C4481EA030621EA8B
:100620004C5123EA4C5350EA013518BF52EA0335C6
:1006300041F4801143F4801338D0A0FB02CE4FF078
:100640000005E1FB02E506F00042E0FB03E54FF0A8
:100650000006E1FB03569CF0000F18BF4EF0010EA0
:10066000A4F1FF04B6F5007F64F5407404D25FEA9C
:100670004E0E6D4146EB060642EAC62141EA55514F
:100680004FEAC52040EA5E504FEACE2EB4F1FD0C91
:1006900088BFBCF5E06F1ED8BEF1004F08BF5FEA0F
:1006A000500E50F1000041EB045170BD06F00046C1
:1006B00046EA010140EA020081EA0301B4EB5C046E
:1006C000C2BFD4EB0C0541EA045170BD41F4801166
:1006D0004FF0000E013C00F3AB8014F1360FDEBF8B
:1006E000002001F0004170BDC4F10004203C35DA67
:1006F0000C341BDC04F11404C4F1200500FA05F3EA
:1007000020FA04F001FA05F240EA020001F000428A
:1007100021F0004110EBD37021FA04F642EB060100
:100720005EEA430E08BF20EAD37070BDC4F10C042A
:10073000C4F1200500FA04F320FA05F001FA04F2EE
:1007400040EA020001F0004110EBD37041F10001DA
:100750005EEA430E08BF20EAD37070BDC4F12005E5
:1007600000FA05F24EEA020E20FA04F301FA05F24D
:1007700043EA020321FA04F001F0004121FA04F2F5
:1007800020EA020000EBD3705EEA430E08BF20EAC5
:10079000D37070BD94F0000F0FD101F000464000FF
:1007A00041EB010111F4801F08BF013CF7D041EA81
:1007B000060195F0000F18BF704703F00046520085
:1007C00043EB030313F4801F08BF013DF7D043EA56
:1007D0000603704794EA0C0F0CEA135518BF95EA0C
:1007E0000C0F0CD050EA410618BF52EA4306D1D193
:1007F00081EA030101F000414FF0000070BD50EAB2
:10080000410606BF1046194652EA430619D094EA3B
:100810000C0F02D150EA013613D195EA0C0F05D125
:1008200052EA03361CBF104619460AD181EA030179
:1008300001F0004141F0FE4141F470014FF0000031
:1008400070BD41F0FE4141F4780170BD70B54FF0CC
:10085000FF0C4CF4E06C1CEA11541DBF1CEA13554C
:1008600094EA0C0F95EA0C0F00F0A7F8A4EB05042E
:1008700081EA030E52EA03354FEA013100F0888025
:100880004FEA03334FF0805545EA131343EA1263EE
:100890004FEA022245EA111545EA10654FEA0026A3
:1008A0000EF000419D4208BF964244F1FD0404F55C
:1008B000407402D25B084FEA3202B61A65EB0305B8
:1008C0005B084FEA32024FF480104FF4002CB6EB75
:1008D000020E75EB030E22BFB61A754640EA0C00F5
:1008E0005B084FEA3202B6EB020E75EB030E22BF35
:1008F000B61A754640EA5C005B084FEA3202B6EB76
:10090000020E75EB030E22BFB61A754640EA9C0034
:100910005B084FEA3202B6EB020E75EB030E22BF04
:10092000B61A754640EADC0055EA060E18D04FEAC2
:10093000051545EA16754FEA06164FEAC30343EA62
:1009400052734FEAC2025FEA1C1CC0D111F4801F2F
:100950000BD141EA00014FF000004FF0004CB6E728
:1009600011F4801F04BF01430020B4F1FD0C88BFC7
:10097000BCF5E06F3FF6AFAEB5EB030C04BFB6EBD2
:10098000020C5FEA500C50F1000041EB045170BDC5
:100990000EF0004E4EEA113114EB5C04C2BFD4EBF2
:1009A0000C0541EA045170BD41F480114FF0000E76
:1009B000013C90E645EA060E8DE60CEA135594EAF2
:1009C0000C0F08BF95EA0C0F3FF43BAF94EA0C0FF5
:1009D0000AD150EA01347FF434AF95EA0C0F7FF46A
:1009E00025AF104619462CE795EA0C0F06D152EABE
:1009F00003353FF4FDAE1046194622E750EA4106A2
:100A000018BF52EA43067FF4C5AE50EA41047FF4B2
:100A10000DAF52EA43057FF4EBAE12E74FF0FF3C17
:100A200006E000BF4FF0010C02E000BF4FF0010CE8
:100A30004DF804CD4FEA410C7FEA6C5C4FEA430C61
:100A400018BF7FEA6C5C1BD001B050EA410C0CBFB0
:100A500052EA430C91EA030F02BF90EA020F002012
:100A6000704710F1000F91EA030F58BF994208BF79
:100A700090422CBFD8176FEAE37040F00100704736
:100A80004FEA410C7FEA6C5C02D150EA013C07D18D
:100A90004FEA430C7FEA6C5CD6D152EA033CD3D0D8
:100AA0005DF8040B704700BF8446104662468C46D2
:100AB0001946634600E000BF01B5FFF7B7FF002805
:100AC00048BF10F1000F01BD4DF808EDFFF7F4FF2E
:100AD0000CBF012000205DF808FB00BF4DF808EDB9
:100AE000FFF7EAFF34BF012000205DF808FB00BFDC
:100AF0004DF808EDFFF7E0FF94BF012000205DF8FE
:100B000008FB00BF4DF808EDFFF7CEFF94BF0120B2
:100B100000205DF808FB00BF4DF808EDFFF7C4FFAB
:100B200034BF012000205DF808FB00BF4FEA4102FE
:100B300012F5001215D211D56FF47873B3EB62522F
:100B400012D94FEAC12343F0004343EA505311F056
:100B5000004F23FA02F018BF404270474FF00000E8
:100B6000704750EA013005D111F0004008BF6FF026
:100B7000004070474FF00000704700BF10B50446BA
:100B80000268114B9A4209D0104B1B685B68A34264
:100B900007D022680E4B9A4206D010BD01F066FCC9
:100BA000F2E709F0A3F8F4E70A48B0F900200132AF
:100BB000094981FB0231D317C3EB610303EB8303C4
:100BC000D31A0380E9E700BF002C01402421002054
:100BD00000100040C40200206766666672B6FEE739
:100BE00000B597B0282200210CA80AF09FFA002334
:100BF0000793089309930A930B930193029303932A
:100C000004930593069302230C9301221092102261
:100C1000119213934FF4601315930CA801F038FC54
:100C2000C8B90F23079302210891002309934FF4B9
:100C300080620A920B9307A801F07CFF68B98023B9
:100C400001934FF48073059301A802F081F830B945
:100C500017B05DF804FBFFF7C1FFFFF7BFFFFFF719
:100C6000BDFF000008B501F0EFFBFFF7B9FF00F092
:100C70001BF809F08DFA00F0C3FA00F0A1FB00F0B8
:100C80003DFB00F05DFC09F09DFA00F06FFB0548AC
:100C900002F062FC04F04CFC00F082F804F06AFC04
:100CA000FEE700BF5C060020F0B589B00024039485
:100CB00004940594069407941A4B5A6942F400323E
:100CC0005A615A6902F400320192019A5A6942F457
:100CD00080225A615B6903F480230293029B012204
:100CE00008214FF0904002F0D7F90F4D224608211D
:100CF000284602F0D1F908270397012604960594A7
:100D00000323069303A94FF0904002F0E7F80397FE
:100D100004960594069403A9284602F0DFF809B06A
:100D2000F0BD00BF001002400004004810B586B0BE
:100D3000164B0293164B0393164B019311238DF818
:100D400000307D238DF80230684608F063FF124BB7
:100D5000B3F9CE402046FFF7E5FB104BC3E9000195
:100D60000BE00D4BB3F9CE402046FFF7DBFB0B4BFE
:100D7000C3E90001012004F02DF808F073FF064BD1
:100D8000B3F9CC30A342ECD1F4E700BF80030020DC
:100D90000112000828040020340100206003002014
:100DA00008B5074A0021074804F00AFC064B186002
:100DB000064A0021064804F003FC064B186008BDF3
:100DC000A4BE0008A1110008D0020020C8BE00087F
:100DD0002D0D00084803002008B50B4BD3E9000196
:100DE0000A4BD3E90023FFF779FE30B10022082136
:100DF0004FF0904002F050F908BD012208214FF059
:100E0000904002F049F9F7E750030020600300200A
:100E10004FF0804300229A63014B01221A70704701
:100E2000D402002038B555EC104B0022002310EE00
:100E3000100A2946FFF752FE10B945EC104B38BD99
:100E400005F100431D46F8E710B53B4B1B68A3B9FD
:100E50003A4BD3E900013A4BC3E90001394BD3E9DE
:100E60000001394BD3E90023FFF70EFA41EC100BD8
:100E7000FFF7D8FF354B83ED000B354C204609F0CA
:100E8000A5FB0121204609F01FFC204609F0A8FC23
:100E9000FFF738FB294CC4E9000100222D4BD4E9AF
:100EA0000001FFF7A9FB1EA3D3E90023FFF7A4FB72
:100EB000C4E90001D4E9000102460B46FFF7E6F958
:100EC00019A3D3E90023FFF7DFF90022224BFFF734
:100ED00093FB17A3D3E90023FFF7D6F9FFF726FE0C
:100EE000FFF720FB174BC3E90001134B1A68042AD4
:100EF0000FD01A4B002119700132194981FB0231C0
:100F0000D317C3EB610303EB8303D31A0A4A1360BD
:100F100010BD124B01211970EEE700BFAFF3008046
:100F20006666666666660A409A9999999999F93F44
:100F30009A999999993941407C03002058030020DF
:100F4000700300205003002060030020680300208D
:100F50006C2100200000303F00803A4078030020E0
:100F6000676666660000000030B583B000254FF06C
:100F700080439D630421244802F09AFE0122082147
:100F80004FF0904002F088F84FF4FA7004F08EFBB6
:100F9000FFF75AFF1D4B00201D49C3E900011D4CFE
:100FA0000195012500959FED0E2B9FED0F1B9FEDE9
:100FB000100B194A1949204600F0E2FC2946204648
:100FC00000F0EAFB6421204600F01EFD9FED0A1BA5
:100FD0009FED0B0B204600F0EEFB03B030BD00BFD1
:100FE0000000000000000000333333333333C33FCD
:100FF000000000000000F03F0000000000805140B1
:1010000000000000008051C0E404002060030020C4
:10101000000034C0D8020020C80200205003002085
:1010200008B5574BD3E9000102460B46FFF72EF9EE
:101030004DA3D3E90023FFF76FFD60B9504BD3E90F
:10104000000102460B46FFF721F949A3D3E900232B
:10105000FFF744FD08B1FFF7DBFE494BD3E9000180
:10106000484BD3E90023FFF70FF941EC100BFFF7D2
:10107000D9FE51EC100B0022434BFFF74DFD00B39E
:10108000424BD3E90001424BD3E90023FFF7FCF8C0
:1010900041EC100BFFF7C6FE51EC100B00223D4B4C
:1010A000FFF73AFD10B3002200233649D1E90001D1
:1010B000FFF70AFDD0B9384B1B78BBB1FFF7A8FE8C
:1010C00014E02F4BD3E900012E4BD3E90023FFF7A7
:1010D000DBF841EC100BFFF7A5FE51EC100B26A33B
:1010E000D3E90023FFF7FAFC0028C9D1274BD3E945
:1010F0000001274BD3E90023FFF7C6F8274BD3E9BC
:101100000023FFF7C1F841EC100BFFF78BFE51EC09
:10111000100B00224FF08043FFF7E0FCE8B11B4BBF
:10112000D3E900011A4BD3E90023FFF7ADF841ECF6
:10113000100BFFF777FE51EC100B0022154BFFF759
:10114000EBFC50B1002200231449D1E90001FFF764
:10115000BBFC10B9104B1B7803B908BDFFF758FE54
:10116000FBE700BFAFF30080CDCCCCCCCCCC1040A3
:10117000666666666666FE3FB81E85EB51B89E3FA2
:1011800058030020700300200000F03F50030020AF
:101190006003002000001440780300206803002052
:1011A00008B5FFF7E1FE09E0D4E90001FFF7BEFC56
:1011B0004FF080439863642004F078FAFFF744FE10
:1011C000FFF70AFE0A4800F03BFA0A4C94ED000BC8
:1011D000FFF728FE84ED000BFFF722FF064B1B787C
:1011E000002BE1D00821054801F05BFFE3E700BFD9
:1011F000D8020020C8020020D402002000040048C9
:1012000008B50F480F4B036004234360002383603D
:101210004FF08073C3604FF4402303614FF4801399
:1012200043610123037643768376C376037743775E
:1012300000F0D4FC00B908BDFFF7D0FCFBE700BF0D
:10124000800300200064004070B588B00023039341
:1012500004930593069307930268274B9A4201D0A3
:1012600008B070BD03F5D633DA6942F00072DA6176
:10127000DA6902F000720192019A5A6942F400326E
:101280005A615B6903F400330293029B4FF40063DD
:10129000039302240494012305930326069609254B
:1012A000079503A94FF0904001F018FE4FF48053CA
:1012B00003930494002405940696079503A94FF020
:1012C000904001F00BFE22460521132001F098FF0B
:1012D000132001F0CDFF22460521142001F090FFDC
:1012E000142001F0C5FF22460521152001F088FFDA
:1012F000152001F0BDFFB3E70064004000B589B0E0
:101300000023049305930693079301930293039399
:101310001448154A0260436083604FF6FF72C26052
:101320000361836102F0ACFD90B94FF480530493E4
:1013300004A90C4802F02CFC68B900230193039324
:1013400001A9084802F010FE40B909B05DF804FB9D
:10135000FFF744FCE9E7FFF741FCEEE7FFF73EFC4F
:10136000F3E700BFA00500200004004000B585B0F1
:1013700000230193029303930F48104A026040F246
:101380007F224260836044F61F62C260836102F084
:1013900077FD50B900230193039301A9064802F099
:1013A000E3FD28B905B05DF804FBFFF717FCF1E792
:1013B000FFF714FCF6E700BF5C06002000100040B9
:1013C00008B50A480A4B03603F234360002383604B
:1013D0004FF47A72C26003614361836102F050FD91
:1013E00000B908BDFFF7FAFBFBE700BF28040020A7
:1013F0000048014010B584B00368B3F1804F0AD0B3
:10140000364A934239D0364A934241D0354A9342C4
:1014100051D004B010BD044603F50433DA6942F03C
:101420000102DA61DB6903F001030093009B2E489F
:101430002E4B036010234360002383608022C26030
:101440004FF4007202614FF40062426183614FF415
:101450000053C36101F040FE60B9234BA3625C629C
:101460002363002205211C2001F0CAFE1C2001F08C
:10147000FFFECEE7FFF7B2FBEFE71D4BDA6942F064
:101480000202DA61DB6903F002030193019BC0E70A
:10149000174BDA6942F01002DA61DB6903F01003DE
:1014A0000293029B00220521362001F0A9FE36207E
:1014B00001F0DEFEADE70E4B9A6942F480229A619C
:1014C0009B6903F480230393039B002205211A20C8
:1014D00001F096FE1A2001F0CBFE9AE700040040CE
:1014E0000010004000480140E4030020800002405A
:1014F0000010024000B587B00023019302930393CC
:10150000049305930368B3F1804F02D007B05DF8F0
:1015100004FB03F504335A6942F400325A615B69F3
:1015200003F400330093009B0223019302930123F1
:10153000059301A94FF0904001F0D0FCE6E70000D0
:1015400000B58FB000230A930B930C930D93079370
:1015500008930993009301930293039304930593D3
:10156000069322484FF0804202601F22426083604F
:101570006322C26003618023836102F081FC28BB87
:101580004FF480530A930AA9184802F001FB00BBEC
:10159000164802F0AFFCF8B900230793099307A996
:1015A000124802F0E1FCD0B96023009300230193BC
:1015B00002930493042269460C4802F03FFA88B96A
:1015C0000A48FFF797FF0FB05DF804FBFFF706FB33
:1015D000D6E7FFF703FBDBE7FFF700FBDCE7FFF7EE
:1015E000FDFAE1E7FFF7FAFAEAE700BFE4040020BA
:1015F0002DE9D0430446436CD3E90067C0E9146782
:10160000036CD3E90023C0E91623D0E91A894246C6
:101610004B4630463946FFF77FFA18B1C4E91489C2
:10162000BDE8D083D4E9188942464B463046394656
:10163000FFF754FA0028F3D0C4E91489F0E700005A
:101640002DE9F04F2DED04AB85B00446407820B96C
:1016500005B0BDEC04ABBDE8F08F00F013FF05460C
:101660006368C31AA2689A4200F29080236CD3E99F
:101670000089A16C42464B46D1E90001FEF704FE09
:1016800006460F46CDE90267D4E91623404649468F
:10169000FEF7FAFDCDE9000132463B46D4E90C01E4
:1016A000FEF7AAFFD4E91423FEF7F0FD06460F4625
:1016B000C4E9146794F800A0BAF1000F0DD1DDE978
:1016C0000023D4E90A01FEF797FF02460B46304695
:1016D0003946FEF7D9FDC4E9140194ED14ABD4E901
:1016E0001A6732463B4651EC1A0BFFF715FA0028F1
:1016F0003AD0C4E91467BAF1000F42D0DDE9022301
:10170000D4E90A01FEF778FFCDE90201D4E914AB70
:10171000DDE90023D4E90E01FEF76EFF02460B4619
:1017200050465946FEF7B0FDDDE90223FEF7AEFD57
:1017300082468B4602460B4630463946FFF7CEF9C5
:1017400050B9D4E9186752465B4630463946FFF730
:10175000E3F908B956465F46636CC3E90067C4E91C
:1017600016896560012073E794ED18BB53EC1B2BC1
:1017700051EC1A0BFFF7B2F90028BCD084ED14BB72
:10178000B9E79FED037B8DED027BBFE700205FE7AC
:10179000000000000000000038B5044601290CBF1D
:1017A0000125002501D0657038BD4378002BFAD1A2
:1017B000FFF71EFFF7E72DE9F84F044659EC108BB1
:1017C00057EC116B11EE102A3B4610EE100A4946F9
:1017D000FFF798F9F0B9C4E91889C4E91A67637882
:1017E000C3B1656CD5E900AB32463B46504659461D
:1017F000FFF792F980B1C5E90067D4E91467D4E92D
:101800001A8942464B4630463946FFF785F970B192
:10181000C4E91489BDE8F88F42464B465046594604
:10182000FFF75CF90028E8D0C5E90089E5E7D4E9CD
:10183000188942464B4630463946FFF74FF9002893
:10184000E8D0C4E91489E5E72DE9D04F2DED048BEC
:1018500004465BEC10AB57EC116BB0EE428AF0EE35
:10186000628A88460022002310EE100A5946FFF7CC
:1018700035F9002842D10022002330463946FFF7CF
:101880002DF900283AD10022002351EC180BFFF764
:1018900025F9002832D184F80280B8F1010F14BF75
:1018A0004FF000084FF0010884F80080C4E904AB51
:1018B000C4E9066784ED088BA068FEF723FE0022CA
:1018C0001D4BFEF7C3FF80468946C4E90AAB0246BA
:1018D0000B4630463946FEF78FFE41EC190BC4E942
:1018E0000C0142464B4651EC180BFEF7AFFF064683
:1018F0000F46C4E90E67E378012B03D0BDEC048BDF
:10190000BDE8D08F52465B4600200021FEF7BCFCAC
:10191000C4E90A0153EC192B00200021FEF7B4FCA6
:10192000C4E90C0132463B4600200021FEF7ACFC26
:10193000C4E90E01E2E700BF00408F4038B504461D
:101940000D464378D3B1C3788B4217D0D0E90A2330
:1019500000200021FEF798FCC4E90A01D4E90C2319
:1019600000200021FEF790FCC4E90C01D4E90E230D
:1019700000200021FEF788FCC4E90E01E57038BDA7
:1019800010B52DED068B0446B0EE408AF0EE608A6D
:10199000B0EE419AF0EE619AB0EE42AAF0EE62AA81
:1019A000426401648364002343709FED131B9FED29
:1019B000140BFFF700FF6423A3609DF8241020465A
:1019C000FFF7BCFF9DF82010B0EE4A2AF0EE6A2A1D
:1019D000B0EE491AF0EE691AB0EE480AF0EE680A65
:1019E0002046FFF731FF00F04DFDA368C01A60608C
:1019F000BDEC068B10BD00BF0000000000E06F4092
:101A00000000000000000000F8B50D1E21DD0446B6
:101A10002846FEF787FD06460F46A068FEF772FDD2
:101A200002460B4630463946FEF710FF06460F4683
:101A300002460B46D4E90C01FEF7DEFDC4E90C01B9
:101A400032463B46D4E90E01FEF700FFC4E90E0121
:101A5000A560F8BDFEE7FEE7FEE7FEE7FEE770479C
:101A600008B5024801F060FB08BD00BFE403002098
:101A700008B5024800F0CBFB08BD00BF8003002082
:101A800008B5024800F0C3FB08BD00BF800300207A
:101A900008B5024800F0BBFB08BD00BF8003002072
:101AA00008B5024801F092FD08BD00BF18070020EC
:101AB00008B5024801F08AFD08BD00BF28040020D7
:101AC00008B5024801F082FD08BD00BFE404002013
:101AD00008B5024801F07AFD08BD00BF5C06002091
:101AE00000B583B00D4B9A6942F001029A619A6980
:101AF00002F001020092009ADA6942F08052DA6143
:101B0000DB6903F080530193019B00220F216FF0EA
:101B1000010001F075FB03B05DF804FB001002400A
:101B200008B500F0A3FC08BD30B589B00446214BD0
:101B30009A6942F400629A619B6903F4006301931D
:101B4000019B02A903A801F0E5F801F0CDF80346D6
:101B50001948A0FB03239B0C013B1848184A02605C
:101B600040F2E732C2604360002303618360836117
:101B700002F086F9054638B1124A0E210F4801F0ED
:101B800001FE284609B030BD0C4801F0E5FC0546D1
:101B90000028F1D1192001F06BFB0F2C01D9012590
:101BA000EAE700222146192001F02AFB064B1C60BF
:101BB000E2E700BF0010024083DE1B43180700204D
:101BC000002C0140211B00080400002070477047D2
:101BD000704770477047704770477047002800F0A3
:101BE000C08038B5044690F82030F3B95E4B0364EA
:101BF0005E4B43645E4B83645E4BC3645E4B8362A7
:101C00005E4BC3625E4B03635E4B43635E4B836319
:101C10005E4BC3635E4B03655E4B43655E4B836502
:101C2000C36DEBB1E36D204698472268136843F01B
:101C30000103136000F026FC054623685A6812F081
:101C4000010F10D100F01EFC401B0A28F5D9636A71
:101C500043F400336362052384F82030012038BD4B
:101C60004E4BC365DEE71A6822F002021A6000F0EC
:101C700009FC054623685A6812F0020F0DD000F0E7
:101C800001FC401B0A28F5D9636A43F40033636200
:101C9000052384F820300120E1E7227E012A3DD08F
:101CA0001A6822F080021A60637E012B3BD0226802
:101CB000136823F040031360A37E012B39D0226800
:101CC000136823F020031360E37E012B37D02268D2
:101CD000136843F010031360237F012B35D0226873
:101CE000136823F008031360637F012B33D022684D
:101CF000136823F004031360A368E26813432269A6
:101D00001343626913436268013A21681343CB614C
:101D100000206062012384F82030A0E71A6842F0B6
:101D200080021A60C0E72268136843F04003136022
:101D3000C2E72268136843F020031360C4E72268F7
:101D4000136823F010031360C6E72268136843F09A
:101D500008031360C8E72268136843F004031360A4
:101D6000CAE70120704700BFE1A00008D31B0008AC
:101D7000EDA00008D51B000855A1000869A10008C6
:101D80007DA10008CD1B0008CF1B0008D11B000857
:101D9000D71B0008D91B0008DB1B000849120008EC
:101DA000026890F82030013BDBB2012B05D9436A71
:101DB00043F4802343620120704730B4D2F80032EC
:101DC00043F00103C2F800324B6903F01F03012006
:101DD00000FA03F3D2F81C026FEA030C20EA0300B6
:101DE000C2F81C02C869B0B9D2F80C020CEA0000B3
:101DF000C2F80C028C884869CD6844EA0544483032
:101E000042F830400C8848698D6844EA05444830FF
:101E100002EBC0004460C86901281BD0886980BB00
:101E2000D2F804020CEA0000C2F80402086970BB90
:101E3000D2F814020CEA0000C2F81402096A01295F
:101E40002BD0D2F8003223F00103C2F80032002078
:101E500030BC7047D2F80C021843C2F80C028C88D0
:101E600048690D6844EA0544483042F830408C899E
:101E700048698D6844EA0544483002EBC00044607C
:101E8000CCE7D2F804021843C2F80402CEE7D2F835
:101E900014021843C2F81402D0E7D2F81C120B4304
:101EA000C2F81C32CDE770B5044690F82050EDB270
:101EB000012D06D0436A43F40023436201252846DE
:101EC00070BD022380F820300268136823F00103FC
:101ED000136000F0D7FA064623685B6813F0010F21
:101EE0000CD000F0CFFA831B0A2BF5D9636A43F4B8
:101EF00000336362052384F82030E0E70025656243
:101F0000DDE738B5044690F82030DBB2022B05D06F
:101F1000436A43F480134362012038BD02681368AA
:101F200043F00103136000F0ADFA054623685A68D8
:101F300012F0010F0DD100F0A5FA431B0A2BF5D9C1
:101F4000636A43F400336362052384F82030012080
:101F5000E3E71A6822F002021A60012384F82030B5
:101F60000020DAE730B590F820C00468A4680CF1CE
:101F7000FF3C5FFA8CFCBCF1010F62D814F0E05F0B
:101F800059D0C4F3016C012404FA0CF41C608B6872
:101F9000002B3DD10D68CB68046843EA45550CF130
:101FA00018031B01E55003680C690CF1180E03EBD4
:101FB0000E135C600B7D012B35D0D17993791B0416
:101FC00043EA0163517943EA012314790168234309
:101FD00001EB0C11C1F88C31D17893781B0443EAE2
:101FE0000163517843EA0123117802680B4302EB45
:101FF0000C12C2F8883102680CF1180C4FEA0C1C64
:1020000052F80C3043F0010342F80C3000201DE080
:102010004C6843EAC403CC6823430CF11804240140
:1020200005682B51BFE7036803EB0E13596841F4B1
:1020300080715960C1E7436A43F400134362012091
:1020400004E0436A43F480234362012030BD90F8EA
:102050002030013BDBB2012B01D90020704703681F
:10206000986810F0806000D001209A6812F0006F2C
:1020700000D001309B6813F0805FEFD001307047D3
:1020800090F820C00CF1FF3C5FFA8CFCBCF1010F12
:1020900000F2A58030B451B90468E46814F0030F6D
:1020A00010D1436A43F40013436201207EE00468C8
:1020B000246914F0030F05D1436A43F4001343620B
:1020C000012073E0056801F11B0424012C5904F080
:1020D00004049460002C6BD1056801F11B042401F9
:1020E0002C59640D1460046801F11B0C4FEA0C1CA0
:1020F00054F80C4004F00204D4600468A444DCF8F2
:10210000045015F0080F5BD008241461056801F134
:102110001B0C05EB0C156D68C5F30725956104686C
:1021200004EB0C146468240C5461026802EB011285
:10213000D2F8B8211A70026802EB0112D2F8B82165
:10214000C2F307225A70026802EB0112D2F8B821DA
:10215000C2F307429A70026802EB0112D2F8B8216A
:10216000120EDA70026802EB0112D2F8BC211A7169
:10217000026802EB0112D2F8BC21C2F307225A71A5
:10218000026802EB0112D2F8BC21C2F307429A7135
:10219000026802EB0112D2F8BC21120EDA71C1B949
:1021A0000268D36843F02003D360002030BC70473E
:1021B000056801F11B0424012C59E408546092E7DE
:1021C00001F11B0504EB0514646804F00F041461AD
:1021D0009CE70268136943F020031361E5E7436A53
:1021E00043F4802343620120704790F82030013B84
:1021F000DBB2012B05D9436A43F4802343620120FB
:1022000070470268536919435161002070472DE9F6
:10221000F84F044603685D69D3F804809F68D3F8DB
:102220000CB0D3F810A0D3F8189015F0010627D001
:1022300017F0010608D001229A6017F0020F00F093
:10224000AC80836A9847002617F4807F0AD0236801
:102250004FF480729A6017F4007F00F0AD80E36A5B
:102260002046984717F4803F0AD023684FF4803205
:102270009A6017F4003F00F0AF80236B2046984728
:1022800015F0080F07D01BF0100F04D046F40076AD
:1022900023681022DA6015F0040F08D01BF0080F35
:1022A00005D023680822DA60636C2046984715F051
:1022B000020F07D02368DB6813F0030F02D0236CF2
:1022C0002046984715F0400F07D01AF0100F04D0A1
:1022D00046F48066236810221A6115F0200F08D09A
:1022E0001AF0080F05D0236808221A61E36C204613
:1022F000984715F0100F07D023681B6913F0030FE0
:1023000002D0A36C2046984715F4003F08D018F07F
:10231000100F05D0236810225A60236D204698477D
:1023200015F4803F08D018F0080F05D02368082264
:102330005A60636D2046984715F4004F69D018F035
:10234000040F63D015F4807F04D019F0010F01D081
:1023500046F0010615F4007F04D019F0020F01D0F9
:1023600046F0020615F4806F04D019F0040F01D076
:1023700046F0040615F4006F48D019F0700945D0F6
:10238000B9F1400F5AD04DD8B9F1200F53D0B9F15F
:10239000300F31D146F0200633E017F0040F05D19D
:1023A00017F0080605D1436B98474DE74FF40066D8
:1023B0004AE74FF4805647E717F4806F02D046F49F
:1023C00000564FE717F4006F02D046F4804649E705
:1023D000A36B2046984745E717F4802F02D046F4B8
:1023E00000464DE717F4002F02D046F4803647E749
:1023F000E36B2046984743E7B9F1100F01D146F04F
:1024000008062268936923F070039361236804220D
:102410005A602EB1636A1E436662A36D20469847D8
:10242000BDE8F88FB9F1500F0BD0B9F1600FE8D1CA
:1024300046F48076E5E746F01006E2E746F040060F
:10244000DFE746F08006DCE708B5074A136843F08B
:1024500010031360032000F0C1FE0F20FFF764FBA0
:10246000FFF73EFB002008BD00200240034A116830
:10247000034B1B780B441360704700BFD407002048
:1024800000000020014B1868704700BFD4070020EF
:10249000002800F0018370B582B00446036813F091
:1024A000010F3BD0B54B5B6803F00C03042B1ED02F
:1024B000B24B5B6803F00C03082B13D06368B3F5D1
:1024C000803F68D0002B40F0928003F1804303F5F9
:1024D00004331A6822F480321A601A6822F48022C7
:1024E0001A605DE0A54B5B6813F4803FE6D04FF4C3
:1024F000003393FAA3F3A14B19684FF4003393FA16
:10250000A3F3B3FA83F303F01F03012202FA03F3E8
:102510000B4203D06368002B00F0C082236813F0E5
:10252000020F00F0C580954B5B6813F00C0F00F0B4
:102530009C80924B5B6803F00C03082B00F08F80AB
:102540002369002B00F0F280012292FAA2F3B3FA81
:1025500083F303F1845303F584139B001A60FFF7A0
:1025600091FF0546022393FAA3F3844B19680223D3
:1025700093FAA3F3B3FA83F303F01F03012202FAE1
:1025800003F30B4240F0C380FFF77CFF401B02289F
:10259000E8D903208BE2794A136843F4803313604F
:1025A000764AD36A23F00F03A1680B43D3626368B2
:1025B000002B36D0FFF766FF05464FF4003393FA41
:1025C000A3F36E4B19684FF4003393FAA3F3B3FAF5
:1025D00083F303F01F03012202FA03F30B429DD1A0
:1025E000FFF750FF401B6428E7D903205FE2B3F5F3
:1025F000A02F09D0614B1A6822F480321A601A6841
:1026000022F480221A60CBE703F18043A3F53C3328
:102610001A6842F480221A601A6842F480321A6002
:10262000BEE7FFF72FFF05464FF4003393FAA3F3FD
:10263000524B19684FF4003393FAA3F3B3FA83F3C0
:1026400003F01F03012202FA03F30B423FF466AFCB
:10265000FFF718FF401B6428E6D9032027E2474B09
:102660005B6813F4803F7FF46BAF022393FAA3F30C
:10267000424B1968022393FAA3F3B3FA83F303F0EE
:102680001F03012202FA03F30B4203D02369934292
:1026900040F006823948036823F0F8036169F822A4
:1026A00092FAA2F2B2FA82F201FA02F21343036042
:1026B000236813F0080F00F08D80A369002B61D010
:1026C000012191FAA1F2B2FA82F22D4B13449B0040
:1026D0001960FFF7D7FE0546022393FAA3F293FA97
:1026E000A3F293FAA3F2254A516A93FAA3F3B3FA39
:1026F00083F303F01F03012202FA03F30B4269D1B3
:10270000FFF7C0FE401B0228E6D90320CFE11B489B
:10271000036823F0F8036169F82292FAA2F2B2FA90
:1027200082F201FA02F213430360C1E7012393FA34
:10273000A3F3B3FA83F303F1845303F584139B00EB
:1027400000221A60FFF79EFE0546022393FAA3F3C8
:102750000A4B1968022393FAA3F3B3FA83F303F045
:102760001F03012202FA03F30B42A1D0FFF78AFEF6
:10277000401B0228E9D9032099E100BF0010024064
:1027800020819010012292FAA2F2B2FA82F2B74BA3
:1027900013449B0000221A60FFF774FE05460223D3
:1027A00093FAA3F293FAA3F293FAA3F2B04A516A0E
:1027B00093FAA3F3B3FA83F303F01F03012202FA9F
:1027C00003F30B4206D0FFF75DFE401B0228E6D95B
:1027D00003206CE1236813F0040F00F0A980A44BE0
:1027E000DB6913F0805F20D1A14BDA6942F080529F
:1027F000DA61DB6903F080530193019B01259D4B56
:102800001B6813F4807F12D0E368012B23D073BBC5
:1028100003F1804303F504331A6A22F001021A62BD
:102820001A6A22F004021A621AE00025E7E7914AC8
:10283000136843F480731360FFF724FE06468D4B44
:102840001B6813F4807FDFD1FFF71CFE801B642818
:10285000F5D903202BE1864A136A43F00103136282
:10286000E368002B3CD0FFF70DFE06462BE0052B5E
:1028700009D07F4B1A6A22F001021A621A6A22F00A
:1028800004021A62ECE77A4B1A6A42F004021A62F6
:102890001A6A42F001021A62E2E7754B196A0223D2
:1028A00093FAA3F3B3FA83F303F01F03012202FAAE
:1028B00003F319423BD1FFF7E5FD801B41F288335A
:1028C000984200F2EF80022393FAA3F293FAA3F363
:1028D000002BE2D1022393FAA3F3654B596ADEE79A
:1028E000FFF7D0FD064615E0614B196A022393FA03
:1028F000A3F3B3FA83F303F01F03012202FA03F3F5
:10290000194214D0FFF7BEFD801B41F28833984274
:1029100000F2CA80022393FAA3F293FAA3F3002BE6
:10292000E2D1022393FAA3F3514B596ADEE7B5BB18
:10293000E369002B00F0BA804D4A526802F00C02A5
:10294000082A00F09980022B2FD04FF0807393FA61
:10295000A3F3B3FA83F303F1845303F584139B00C9
:1029600000221A60FFF78EFD04464FF0007393FAC1
:10297000A3F33F4B19684FF0007393FAA3F3B3FA34
:1029800083F303F01F03012202FA03F319426BD011
:10299000FFF778FD001B0228E7D9032087E0344ABF
:1029A000D36923F08053D361C2E74FF0807393FA69
:1029B000A3F3B3FA83F303F1845303F584139B0069
:1029C00000221A60FFF75EFD05464FF0007393FA90
:1029D000A3F3274B19684FF0007393FAA3F3B3FAEC
:1029E00083F303F01F03012202FA03F3194206D016
:1029F000FFF748FD401B0228E7D9032057E01C4998
:102A00004B6823F47413626A206A024313434B60D9
:102A10004FF0807393FAA3F3B3FA83F303F1845373
:102A200003F584139B0001221A60FFF72BFD044677
:102A30004FF0007393FAA3F30D4B19684FF0007336
:102A400093FAA3F3B3FA83F303F01F03012202FA0C
:102A500003F3194206D1FFF715FD001B0228E7D941
:102A6000032024E0002022E0002020E020819010BC
:102A70000010024000700040012B1AD0104B5B6820
:102A800003F48031226A914215D103F47013626A13
:102A9000934212D100200AE001207047012006E095
:102AA000012004E0032002E0032000E0002002B047
:102AB00070BD0120FBE70120F9E70120F7E700BF27
:102AC00000100240164B5B6803F00C02082A01D08C
:102AD0001448704703F470114FF4701292FAA2F286
:102AE000B2FA82F221FA02F20F49885C0C4AD26AE9
:102AF00002F00F020F2191FAA1F1B1FA81F1CA405F
:102B00000A498A5C13F4803F05D0064BB3FBF2F30D
:102B100003FB00F07047064B03FB00F0704700BF5B
:102B20000010024000127A00ECBE0008FCBE000853
:102B300000093D00002800F0BE8070B50D46044637
:102B4000614B1B6803F007038B420BD25E4A13688C
:102B500023F007030B431360136803F007038B4252
:102B600040F0AB80236813F0020F06D0574A536839
:102B700023F0F003A1680B435360236813F0010FA7
:102B80005AD06368012B2DD0022B40D0022292FA3A
:102B9000A2F24E4A1068022292FAA2F2B2FA82F22D
:102BA00002F01F02012101FA02F2104200F08780B8
:102BB00046494A6822F0030213434B60FFF762FC68
:102BC0000646424B5B6803F00C036268B3EB820F6E
:102BD00032D0FFF757FC801B41F288339842F0D97E
:102BE000032067E04FF4003292FAA2F2374A1068ED
:102BF0004FF4003292FAA2F2B2FA82F202F01F020D
:102C0000012101FA02F20242D2D1012052E04FF03A
:102C1000007292FAA2F22D4A10684FF0007292FAF6
:102C2000A2F2B2FA82F202F01F02012101FA02F2CC
:102C30001042BDD101203DE0234B1B6803F0070388
:102C4000AB420AD9204A136823F007032B431360D1
:102C5000136803F00703AB4233D1236813F0040F6A
:102C600006D01A4A536823F4E063E1680B435360CB
:102C7000236813F0080F07D0144A536823F46053F5
:102C8000216943EAC1035360FFF71CFF0F4B5B68E8
:102C900003F0F003F02292FAA2F2B2FA82F2D340E9
:102CA0000B4AD35CD8400B4B18600B4B1868FEF7EF
:102CB0003BFF002070BD012070470120FAE7012092
:102CC000F8E70120F6E700BF0020024000100240B4
:102CD0000CBF00080800002004000020014B186809
:102CE000704700BF0800002008B5FFF7F7FF074B4B
:102CF0005B6803F460534FF4605292FAA2F2B2FAA6
:102D000082F2D340024AD35CD84008BD0010024092
:102D10001CBF00080F2303600B4B5A6802F003022C
:102D200042605A6802F0F00282605A6802F4E0627F
:102D3000C2605B68DB0803F4E0630361034B1B685C
:102D400003F007030B6070470010024000200240B0
:102D5000F0B583B00446036813F4803F44D05C4B65
:102D6000DB6913F0805F6DD1594BDA6942F0805214
:102D7000DA61DB6903F080530193019B0125554B18
:102D80001B6813F4807F5FD0514B1B6A13F44073B0
:102D900021D0626802F440729A421CD04C48016A09
:102DA00021F440764FF4803393FAA3F2B2FA82F220
:102DB000494F3A4492004FF0010CC2F800C093FA18
:102DC000A3F3B3FA83F33B449B0000221A6006622C
:102DD00011F0010F4CD13E4A136A23F4407361682D
:102DE0000B431362002D69D1236813F0010F06D045
:102DF000374A136B23F00303A1680B431363236863
:102E000013F0200F06D0324A136B23F01003E16851
:102E10000B431363236813F0800F06D02C4AD36A48
:102E200023F4F87321690B43D362236813F4805FA2
:102E30004BD0274A136B23F4807361690B431363F0
:102E4000002043E000259AE7224A136843F4807388
:102E50001360FFF717FB06461E4B1B6813F4807FB9
:102E600092D1FFF70FFB801B6428F5D903202DE0DA
:102E7000FFF708FB064614E0154B196A022393FA84
:102E8000A3F3B3FA83F303F01F03012202FA03F35F
:102E90000B42A0D1FFF7F6FA801B41F2883398422B
:102EA00011D8022393FAA3F293FAA3F3002BE3D1F0
:102EB000022393FAA3F3064B596ADFE7D36923F0A1
:102EC0008053D36190E7032000E0002003B0F0BD01
:102ED000001002400070004000819010F0B583B0F7
:102EE000002362E085685E000324B44025EA0405FF
:102EF000CC68B4402C438460446824EA0C0C4C68D1
:102F0000C4F300149C4044EA0C0444605EE0DD0815
:102F1000083550F8256003F007044FEA840C0F24AD
:102F200004FA0CF426EA040E0C6904FA0CF444EAE0
:102F30000E0440F8254060E0032400E0002404FA79
:102F40000EF42C430CF1020C4F4D45F82C404F4C25
:102F5000A568D44325EA02064F6817F4801F01D004
:102F600042EA0506494DAE60ED6804EA05064F6881
:102F700017F4001F01D042EA0506444DEE606D686B
:102F800004EA05064F6817F4003F01D042EA05063F
:102F90003E4D6E602D682C404E6816F4803F01D087
:102FA00042EA0504394A146001330A6832FA03F42C
:102FB00068D04FF0010C0CFA03FC1CEA0202F3D0BB
:102FC0004C6804F00304013C012C8BD94C6804F0DC
:102FD0000304032C0CD0C4685D004FF0030C0CFA02
:102FE00005FC24EA0C0C8C68AC4044EA0C04C46078
:102FF0004C6804F00304022C89D004684FEA430EA5
:103000004FF0030C0CFA0EFC24EA0C0C4C6804F094
:10301000030404FA0EF444EA0C0404604C6814F44B
:10302000403FC1D01A4CA56945F00105A561A469CE
:1030300004F001040194019C4FEA930C0CF1020589
:10304000114C54F8255003F003044FEA840E0F246A
:1030500004FA0EF425EA0405B0F1904F3FF46EAF88
:103060000C4CA0420AD004F58064A04208D004F5BC
:103070008064A0423FF460AF052460E701245EE76E
:1030800002245CE703B0F0BD0000014000040140F1
:1030900000100240000400480AB18161704781625B
:1030A0007047436901EA030221EA030141EA024150
:1030B000816170470268054B1344054AA2FB032354
:1030C0001B099B000364034BC3637047F8FFFDBFFC
:1030D000CDCCCCCC0000024020B310B50446022376
:1030E00080F8213001680A6822F47F5222F0300211
:1030F000436880680343E0680343206903436069D1
:103100000343A0690343E069034313430B60204674
:10311000FFF7D0FF0020A063012384F8213084F85A
:10312000200010BD0120704738B5C36B1A680468D1
:103130002568016C04238B40134213D015F0040F53
:1031400010D0236813F0200F03D1236823F0040369
:103150002360016CC26B04238B405360C36A03B1CC
:10316000984738BD02238B4013421AD015F0020F46
:1031700017D0236813F0200F06D1236823F00A0329
:103180002360012380F82130016CC26B02238B4045
:103190005360002380F82030836A002BE1D09847E9
:1031A000DFE7082303FA01F11142DAD015F0080F26
:1031B000D7D0236823F00E032360026CC16B012378
:1031C00003FA02F24A60836380F82130002380F81A
:1031D0002030036B002BC4D09847C2E7074AD3685E
:1031E00023F4E0631B041B0C000200F4E0600343C3
:1031F00043F0BF6343F40033D360704700ED00E059
:1032000000B5194BDB68C3F30223C3F1070CBCF113
:10321000040F28BF4FF0040C03F1040EBEF1060F9B
:1032200018D9033B4FF0FF3E0EFA0CFC21EA0C01CB
:1032300099400EFA03F322EA0303194300280BDB3B
:103240000901C9B200F1604000F5614080F8001347
:103250005DF804FB0023E5E700F00F000901C9B2A7
:10326000024B1954F4E700BF00ED00E014ED00E05C
:10327000002807DB00F01F02400901239340024AA7
:1032800042F82030704700BF00E100E0BFF34F8FED
:103290000549CA6802F4E062044B1343CB60BFF3F4
:1032A0004F8F00BFFDE700BF00ED00E00400FA050E
:1032B0007047704770477047704770477047704756
:1032C0007047704730B4036A23F001030362036A56
:1032D0004568826922F4803222F073020C6822432E
:1032E00023F002038C682343194CA0420BD004F551
:1032F000A054A04207D004F58064A04203D004F596
:103300008064A04205D123F00803CC68234323F056
:1033100004030F4CA0420BD004F5A054A04207D0E8
:1033200004F58064A04203D004F58064A04207D174
:1033300025F4407C4C6944EA0C0C8D6945EA0C0587
:10334000456082614A684263036230BC704700BFD7
:10335000002C014030B4036A23F480730362036AD3
:103360004468C26922F4803222F073020D682A4355
:1033700023F400738D6843EA0523144DA8421DD041
:10338000124DA8420BD005F5A055A84207D005F56F
:103390008065A84203D005F58065A84207D124F4D2
:1033A00040544D6944EA05148D6944EA05144460AB
:1033B000C2614A68C263036230BC704723F4006391
:1033C000CD6843EA052323F48063D9E7002C01404C
:1033D00030B4036A23F480530362026A4468C36909
:1033E00023F0807323F4E6430D6843EA052322F4B7
:1033F00000528D6842EA05320D4DA8420BD005F50A
:10340000A055A84207D005F58065A84203D005F570
:103410008065A84204D124F480444D6944EA8514AF
:103420004460C3614B680364026230BC704700BFF4
:10343000002C014030B4036A23F480330362036A32
:103440004468426D22F4803222F070020D682A43F3
:1034500023F400338D6843EA05430D4DA8420BD099
:1034600005F5A055A84207D005F58065A84203D010
:1034700005F58065A84204D124F480344D6944EAFE
:103480000524446042654A688265036230BC704727
:10349000002C014030B4036A23F480130362026AF3
:1034A0004468436D23F0807323F4E0430D6843EADE
:1034B000052322F400128D6842EA05520D4DA84200
:1034C0000BD005F5A055A84207D005F58065A842A8
:1034D00003D005F58065A84204D124F480244D6909
:1034E00044EA8524446043654B68C365026230BC8E
:1034F000704700BF002C014010B4036A046A24F036
:1035000001040462846924F0F00C4CEA021223F0F6
:103510000A030B43826103625DF8044B704710B4E9
:10352000046A24F0100404628469036A24F4704C71
:103530004CEA023223F0A00343EA011382610362E2
:103540005DF8044B7047836823F070030B4343F02E
:10355000070383607047000090F83D30DBB2012B19
:103560002AD1022380F83D300268D36843F001037A
:10357000D3600368134A934210D0B3F1804F0DD04B
:10358000A2F59432934209D002F59E32934205D0BF
:103590001A6842F001021A600020704799680A4ACE
:1035A0000A40062A0AD0B2F5803F09D01A6842F0D4
:1035B00001021A6000207047012070470020704708
:1035C00000207047002C01400700010010B50446A0
:1035D00003681A6912F0020F13D0DA6812F0020FB2
:1035E0000FD06FF002021A610123037703689B6911
:1035F00013F0030F00F0A380D0F894309847002315
:10360000237723681A6912F0040F14D0DA6812F0D5
:10361000040F10D06FF004021A610223237723688D
:103620009B6913F4407F00F09280D4F894302046D8
:1036300098470023237723681A6912F0080F14D0E3
:10364000DA6812F0080F10D06FF008021A61042334
:1036500023772368DB6913F0030F00F08180D4F82F
:103660009430204698470023237723681A6912F084
:10367000100F13D0DA6812F0100F0FD06FF0100295
:103680001A61082323772368DB6913F4407F70D025
:10369000D4F89430204698470023237723681A698A
:1036A00012F0010F0AD0DA6812F0010F06D06FF0A5
:1036B00001021A61D4F884302046984723681A69B9
:1036C00012F0800F0AD0DA6812F0800F06D06FF087
:1036D00080021A61D4F8B4302046984723681A69EA
:1036E00012F4807F0AD0DA6812F0800F06D06FF4EF
:1036F00080721A61D4F8B8302046984723681A6956
:1037000012F0400F0AD0DA6812F0400F06D06FF0C6
:1037100040021A61D4F88C302046984723681A6911
:1037200012F0200F0AD0DA6812F0200F06D06FF0E6
:1037300020021A61D4F8AC302046984710BDD0F86A
:103740009C309847D4F8A0302046984757E7D4F8E3
:103750009C3020469847D4F8A0302046984768E728
:10376000D4F89C3020469847D4F8A030204698479B
:1037700079E7D4F89C3020469847D4F8A03020460A
:10378000984789E7002A00F0C88010B4844690F872
:103790003D30D8B2012812D09CF83D3003F0FF0034
:1037A000002B40F0BC800D2900F2BD80DFE801F065
:1037B0008A8E9194979A9DA0A3A6A9ACAFB21B291B
:1037C00000F2AE80DFE801F00E12161A1E22262A41
:1037D0002E32363A3E42464A4E52565A5E62666A29
:1037E0006E72767ACCF84C20084699E0CCF85020DE
:1037F000002095E0CCF85420002091E0CCF858202F
:1038000000208DE0CCF85C20002089E0CCF860201E
:10381000002085E0CCF86420002081E0CCF868200E
:1038200000207DE0CCF86C20002079E0CCF87020FE
:10383000002075E0CCF87420002071E0CCF87820EE
:1038400000206DE0CCF87C20002069E0CCF88020DE
:10385000002065E0CCF88420002061E0CCF88820CE
:1038600000205DE0CCF88C20002059E0CCF89020BE
:10387000002055E0CCF89420002051E0CCF89820AE
:1038800000204DE0CCF89C20002049E0CCF8A0209E
:10389000002045E0CCF8A420002041E0CCF8A8208E
:1038A00000203DE0CCF8AC20002039E0CCF8B0207E
:1038B000002035E0CCF8B420002031E0CCF8B8206E
:1038C00000202DE0CCF84C20084629E0CCF8502010
:1038D00026E0CCF8542023E0CCF8582020E0CCF8A7
:1038E0005C201DE0CCF860201AE0CCF8642017E0E2
:1038F000CCF8682014E0CCF86C2011E0CCF87020F3
:103900000EE0CCF874200BE0CCF8782008E0CCF87E
:103910007C2005E0CCF8802002E0012070470120E7
:103920005DF8044B70470120FAE700000368224A63
:10393000904206D0B0F1804F03D0A2F5943290426D
:1039400003D123F070034A6813431B4A904212D0FC
:10395000B0F1804F0FD0A2F5943290420BD002F517
:103960009E32904207D002F58062904203D002F569
:103970008062904203D123F44073CA68134323F05A
:1039800080034A69134303608B68C3620B688362D8
:10399000094B98420BD003F5A053984207D003F58A
:1039A0008063984203D003F58063984201D10B698C
:1039B0000363012343617047002C014030B4036A64
:1039C00023F010030362036A4468826922F0807264
:1039D00022F4E6420D6842EA052223F020038D68B6
:1039E00043EA0513144DA8421DD0134DA8420BD035
:1039F00005F5A055A84207D005F58065A84203D07B
:103A000005F58065A84207D124F440644D6944EA75
:103A100085048D6944EA8504446082614A68826352
:103A2000036230BC704723F08003CD6843EA05137E
:103A300023F04003D9E700BF002C014038B590F8CF
:103A40003C30012B00F0958004460D46012380F8A0
:103A50003C30142A00F28880DFE802F00B8686866C
:103A60001F86868634868686488686865D86868616
:103A700071000068FFF726FC2268936943F0080391
:103A800093612268936923F0040393612268936928
:103A900029690B439361002067E00068FFF78EFF00
:103AA0002268936943F4006393612268936923F465
:103AB0008063936122689369296943EA01239361D2
:103AC000002052E00068FFF745FC2268D36943F00C
:103AD0000803D3612268D36923F00403D361226809
:103AE000D36929690B43D36100203EE00068FFF7EA
:103AF0006FFC2268D36943F40063D3612268D36901
:103B000023F48063D3612268D369296943EA0123DE
:103B1000D361002029E00068FFF78CFC2268536D18
:103B200043F0080353652268536D23F00403536583
:103B30002268536D29690B435365002015E0006826
:103B4000FFF7A8FC2268536D43F4006353652268B5
:103B5000536D23F4806353652268536D296943EAEA
:103B600001235365002000E00120002384F83C304D
:103B700038BD0220FCE710B4846824F47F4C42EA8C
:103B800003220A4342EA0C0282605DF8044B70474C
:103B900090F83C30012B76D010B50446012380F814
:103BA0003C30022380F83D3002689068374B034078
:103BB00093600B68602B4CD029D8402B54D00CD983
:103BC000502B22D1CA6849682068FFF795FC502124
:103BD0002068FFF7B8FC002005E0202B0DD009D9A4
:103BE000302B0AD00120012384F83D30002384F8D3
:103BF0003C3010BD0BB1102B05D119462068FFF7E2
:103C0000A2FC0020EFE70120EDE70120EBE7B3F590
:103C1000805F34D0B3F5005F0CD1CB684A68896807
:103C20002068FFF7A8FF2268936843F480439360FD
:103C30000020D8E7702B24D1CB684A6889682068B7
:103C4000FFF799FF2268936843F0770393600020A1
:103C5000C9E7CA6849682068FFF761FC60212068ED
:103C6000FFF771FC0020BEE7CA6849682068FFF7CB
:103C700043FC40212068FFF766FC0020B3E70020EA
:103C8000B1E70120AFE70220704700BF8800FEFFC8
:103C900001F01F01012303FA01FC036A23EA0C036C
:103CA0000362036A02FA01F10B43036270470000EA
:103CB00010B50446084600293BD194F83E30DBB2EB
:103CC000013B18BF0123002B40F0888000285BD106
:103CD000022384F83E30012201462068FFF7D8FF16
:103CE0002368414A93420BD002F5A052934207D079
:103CF00002F58062934203D002F58062934203D1C1
:103D00005A6C42F400425A642368374A934257D0AF
:103D1000B3F1804F54D0A2F59432934250D002F5C3
:103D20009E3293424CD01A6842F001021A60002081
:103D300055E004290CD0082911D00C2916D01029DF
:103D40001BD094F84330DBB2013B18BF0123BAE724
:103D500094F83F30DBB2013B18BF0123B3E794F87E
:103D60004030DBB2013B18BF0123ACE794F841308F
:103D7000DBB2013B18BF0123A5E794F84230DBB268
:103D8000013B18BF01239EE7042809D008280BD067
:103D90000C280DD010280FD0022384F843309AE766
:103DA000022384F83F3096E7022384F8403092E7FC
:103DB000022384F841308EE7022384F842308AE7F8
:103DC00099680A4A0A40062A0AD0B2F5803F09D00B
:103DD0001A6842F001021A60002000E0012010BDC4
:103DE0000020FCE70020FAE7002C0140070001005A
:103DF000154BC0F88430154BC0F88830144BC0F810
:103E00008C30144BC0F89030134BC0F89430134BE7
:103E1000C0F89830124BC0F89C30124BC0F8A0305C
:103E2000114BC0F8A430114BC0F8A830104BC0F8AB
:103E3000AC30104BC0F8B0300F4BC0F8B4300F4B63
:103E4000C0F8B830704700BF7D0B0008B3320008DF
:103E5000BF320008C1320008B7320008B93200088A
:103E6000B5320008BB320008BD320008C33200087A
:103E7000E13F0008E33F0008E53F0008E73F000896
:103E8000A0B310B5044690F83D3013B3022384F874
:103E90003D30214651F8040BFFF748FD012384F81B
:103EA000483084F83E3084F83F3084F8403084F85D
:103EB000413084F8423084F8433084F8443084F848
:103EC000453084F8463084F8473084F83D3000208F
:103ED00010BD80F83C30FFF78BFFE36C1BB1E36C47
:103EE00020469847D2E7024BE364F8E70120704789
:103EF000F5130008A0B310B5044690F83D3013B395
:103F0000022384F83D30214651F8040BFFF70EFDE3
:103F1000012384F8483084F83E3084F83F3084F838
:103F2000403084F8413084F8423084F8433084F8DB
:103F3000443084F8453084F8463084F8473084F8BB
:103F40003D30002010BD80F83C30FFF751FF636E1C
:103F50001BB1636E20469847D2E7024B6366F8E7D1
:103F600001207047B132000890F83C30012B33D06B
:103F700030B4012380F83C30022380F83D300268E1
:103F800053689468154DAA4221D023F070030D6840
:103F90002B4353600368114A93420AD0B3F1804F18
:103FA00007D0A2F59432934203D002F59E32934299
:103FB00004D124F080048A6814439C60012380F8B3
:103FC0003D30002380F83C30184630BC704723F465
:103FD00070034D682B43D8E702207047002C014046
:103FE0007047704770477047034AD2F8883043F4EF
:103FF0007003C2F88830704700ED00E000F108035C
:1040000043604FF0FF328260C360036100230360AE
:10401000704700230361704743684B609A688A6069
:10402000516099600861036801330360704730B4E0
:104030000D68B5F1FF3F11D000F108031C465B6825
:104040001A68AA42FAD963684B6099608C60616013
:10405000086103680133036030BC70470469F2E70C
:104060000369416882688A60416851605A68824287
:1040700006D0002202611A68013A1A601868704777
:1040800082685A60F5E710B5044601F0C3FCA26BE4
:10409000E36B9A4204D0002401F0DEFC204610BD00
:1040A0000124F9E710B5044601F0B4FCA36B23B971
:1040B000012401F0D1FC204610BD0024F9E770B5C1
:1040C00004461546866B026C5AB903681BB1002082
:1040D0000136A66370BD406800F0CAFF002363602C
:1040E000F6E76DB9806806F0F9FF226CA368134407
:1040F000A3606268934219D32368A3602846E7E768
:10410000C06806F0EBFF226C5142E3689B1AE36043
:104110002268934202D263680B44E360022D01D00F
:104120000020D5E726B1013E0020D1E72846CFE7A1
:104130000020CDE70346026C6AB110B50846D96885
:104140001144D9605C68A14201D31968D960D9686B
:1041500006F0C4FF10BD704738B5054601F05AFCA3
:1041600095F8454064B201E0013C64B2002C0ADDE0
:104170006B6A43B105F1240000F0D0FE0028F3D0B3
:1041800000F060FFF0E7FF2385F8453001F064FCA4
:1041900001F040FC95F8444064B201E0013C64B297
:1041A000002C0ADD2B6943B105F1100000F0B6FECA
:1041B0000028F3D000F046FFF0E7FF2385F84430F5
:1041C00001F04AFC38BD38B5E0B10D46044601F0B7
:1041D00021FC2368E26B216C01FB0230606000204F
:1041E000A063A360013A02FB0133E360FF2384F87C
:1041F000443084F84530FDB9236963B901F02CFCE3
:10420000012038BD4FF0500383F31188BFF36F8F47
:10421000BFF34F8FFEE704F1100000F07FFE00288F
:10422000ECD04FF0E0234FF08052C3F8042DBFF3E1
:104230004F8FBFF36F8FE1E704F11000FFF7DEFE51
:1042400004F12400FFF7DAFED8E738B51D46049CD8
:104250000B4649B92460E063236401212046FFF73F
:10426000B2FF84F84C5038BD2260F4E740B94FF0FB
:10427000500383F31188BFF36F8FBFF34F8FFEE7B7
:1042800010B584B01C46844653B192B189B94FF041
:10429000500383F31188BFF36F8FBFF34F8FFEE797
:1042A0004FF0500383F31188BFF36F8FBFF34F8F2D
:1042B000FEE76AB150230393039B502B13D04FF0BA
:1042C000500383F31188BFF36F8FBFF34F8FFEE767
:1042D0000029EFD04FF0500383F31188BFF36F8FA5
:1042E000BFF34F8FFEE7012384F8463000949DF81A
:1042F00018306046FFF7A9FF204604B010BDF0B5A6
:1043000085B0019288B10F461D460446B1B1022D19
:1043100020D1E36B012B1DD04FF0500383F31188A4
:10432000BFF36F8FBFF34F8FFEE74FF0500383F360
:104330001188BFF36F8FBFF34F8FFEE7036C002B25
:10434000E5D04FF0500383F31188BFF36F8FBFF3B5
:104350004F8FFEE700F07CFE064658B9019B002B0C
:1043600048D04FF0500383F31188BFF36F8FBFF332
:104370004F8FFEE700263DE02A4639462046FFF7EC
:104380009EFE636A7BB948B14FF0E0234FF0805244
:10439000C3F8042DBFF34F8FBFF36F8F01F05CFBA9
:1043A000012005B0F0BD04F1240000F0B7FD0028A5
:1043B000F4D04FF0E0234FF08052C3F8042DBFF348
:1043C0004F8FBFF36F8FE9E701F046FB0020E8E76E
:1043D00002A800F0E9FD012619E0002384F844302A
:1043E00021E0002384F8453023E02046FFF7B4FEA7
:1043F00000F074FC01F00EFBA26BE36B9A42BBD39E
:10440000022DB9D0019B002BDED0002EE0D001F0B0
:1044100023FB00F0C9FB01F0FDFA94F8442052B2EE
:10442000B2F1FF3FD9D094F8452052B2B2F1FF3F2C
:10443000D7D001F011FB01A902A800F0C1FDD8B945
:104440002046FFF720FE0028CFD0019904F110008C
:1044500000F030FD2046FFF77FFE00F03FFC002813
:10446000C8D14FF0E0234FF08052C3F8042DBFF3C2
:104470004F8FBFF36F8FBDE72046FFF76DFE00F053
:104480002DFC00208DE72DE9F84390B10F4616462C
:104490001C460546B1B1022C20D1EB6B012B1DD07F
:1044A0004FF0500383F31188BFF36F8FBFF34F8F2B
:1044B000FEE74FF0500383F31188BFF36F8FBFF314
:1044C0004F8FFEE7036C002BE5D04FF0500383F3D2
:1044D0001188BFF36F8FBFF34F8FFEE701F0C0FB72
:1044E000EFF311894FF0500383F31188BFF36F8FFF
:1044F000BFF34F8FAA6BEB6B9A4206D3022C04D00A
:10450000002089F31188BDE8F88395F845804FFABB
:1045100088F8224639462846FFF7D1FDB8F1FF3F1B
:1045200006D008F101035BB285F845300120E8E7C9
:104530006B6A0BB90120E4E705F1240000F0EEFC02
:1045400018B126B101203060DBE70120D9E7012056
:10455000D7E7F0B585B0019290B10F460446C1B1DE
:1045600000F076FD064600BB019B002B5ED04FF0AD
:10457000500383F31188BFF36F8FBFF34F8FFEE7B4
:104580004FF0500383F31188BFF36F8FBFF34F8F4A
:10459000FEE7036C002BE3D04FF0500383F3118848
:1045A000BFF36F8FBFF34F8FFEE700263EE0394623
:1045B0002046FFF7BFFD013DA563236923B901F044
:1045C0004BFA012005B0F0BD04F1100000F0A6FC8C
:1045D0000028F4D04FF0E0234FF08052C3F8042DB0
:1045E000BFF34F8FBFF36F8FE9E701F035FA00207B
:1045F000E8E702A800F0D8FC012621E0002384F8B7
:10460000443029E0002384F845302BE02046FFF7B2
:10461000A3FD00F063FB09E02046FFF79DFD00F0DD
:104620005DFB2046FFF73EFD00283FD101F0F2F987
:10463000A56B002DBBD1019B002BD6D0002ED8D06E
:1046400001F00AFA00F0B0FA01F0E4F994F844300D
:104650005BB2B3F1FF3FD1D094F845305BB2B3F118
:10466000FF3FCFD001F0F8F901A902A800F0A8FCA3
:104670000028D1D12046FFF715FD0028C6D00199AA
:1046800004F1240000F016FC2046FFF765FD00F061
:1046900025FB0028CAD14FF0E0234FF08052C3F829
:1046A000042DBFF34F8FBFF36F8FBFE7002089E763
:1046B0000023072B0CD8074A52F833200AB10133E4
:1046C000F7E7044A42F8331002EBC303586070471F
:1046D000704700BFD807002070B504460D46164647
:1046E00001F098F994F844305BB2B3F1FF3F0DD07C
:1046F00094F845305BB2B3F1FF3F0BD001F0ACF959
:10470000A36B5BB12046FFF727FD70BD002384F843
:104710004430EDE7002384F84530EFE73246294680
:1047200004F1240000F0DEFBECE70000084B1B68FE
:104730001B6823B9074B4FF0FF321A607047044BD8
:104740001B68DB68DB685A68024B1A60704700BF61
:104750001C080020C80C00202DE9F04780460D46BB
:1047600017469946089EDDF824A00A9C9200A521D0
:10477000206B06F0DBFC236B07F18042013A03EB70
:10478000820727F007074FF0000CBCF10F0F0BD882
:1047900015F80C2004EB0C0383F8342015F80C30CA
:1047A00013B10CF1010CF0E7002384F84330372EED
:1047B00000D93726E662E66400252565201DFFF74F
:1047C00028FC04F11800FFF724FC2461C6F1380628
:1047D000A6616462656584F858504A464146384689
:1047E00001F0F0F82060BAF1000F01D0CAF80040E3
:1047F000BDE8F08738B5002407E004EB840293009D
:104800000E481844FFF7FAFB0134372CF5D90C4D4C
:104810002846FFF7F3FB0B4C2046FFF7EFFB0A4857
:10482000FFF7ECFB0948FFF7E9FB0948FFF7E6FB58
:10483000084B1D60084B1C6038BD00BF24080020D9
:104840009C0C0020B00C0020D00C0020FC0C0020A0
:10485000E80C00201C0800202008002010B50446A9
:1048600001F0D8F8224A136801331360214B1B680A
:104870005BB1214B1B686BB91E4B1B68DA6AE36A9C
:104880009A4207D81B4B1C6004E01A4B1C6013684B
:10489000012B29D0194A1368013313606364E06A5D
:1048A000174B1B68984201D9154B186000EB80002C
:1048B000211D144B03EB8000FFF7AEFB01F0CCF899
:1048C0000D4B1B687BB10B4B1B68DA6AE36A9A429B
:1048D00009D24FF0E0234FF08052C3F8042DBFF30C
:1048E0004F8FBFF36F8F10BDFFF784FFD2E700BF7C
:1048F000840C002018080020E40C0020940C0020F8
:10490000980C00202408002010B5044690F8593077
:1049100063B1012B11D0022B0ED04FF0500383F363
:104920001188BFF36F8FBFF34F8FFEE7006B00F06E
:10493000D3FF204600F0D0FF10BD00F0CDFFFBE715
:104940000F4B1B68D3B110B501F064F80D4BDB6859
:10495000DC68201DFFF784FB0B4A1368013B1360E2
:10496000074A1368013B136001F076F82046FFF711
:10497000CBFF034B1B68002BE6D110BD704700BF77
:10498000880C0020FC0C0020840C002008B5FFF7E8
:10499000D7FF074B1B68012BF9D94FF0E0234FF0ED
:1049A0008052C3F8042DBFF34F8FBFF36F8FEEE734
:1049B0002408002070B504460D46174B1E68174B9F
:1049C00018680430FFF74CFBB4F1FF3F0DD03444BE
:1049D000124B1B685C60A64210D9114B18680F4B34
:1049E00019680431FFF723FB70BD002DEFD00B4B8E
:1049F000196804310B48FFF70FFBF5E70A4B1868FD
:104A0000064B19680431FFF712FB084B1B68A342E1
:104A1000EAD9064B1C60E7E7100D002018080020BB
:104A200020080020E80C00201C080020C80C0020F2
:104A300030B587B00B9C7CB10C9DB5B15C2504955D
:104A4000049D5C2D1AD04FF0500383F31188BFF3FF
:104A50006F8FBFF34F8FFEE74FF0500383F3118842
:104A6000BFF36F8FBFF34F8FFEE74FF0500383F319
:104A70001188BFF36F8FBFF34F8FFEE70C9D2C6340
:104A8000022485F8594000240394029505AC019452
:104A90000A9C0094FFF760FE0C98FFF7DFFE059874
:104AA00007B030BD2DE9F04385B00746884614466F
:104AB0001E46900000F098FE00B381465C2000F096
:104AC00093FE0546B0B1C0F83090E5B1002385F8FB
:104AD0005930039302950D9B01930C9B0093334631
:104AE000224641463846FFF737FE2846FFF7B6FE16
:104AF000012005E0484600F0EFFEE6E74FF0FF300A
:104B000005B0BDE8F0834FF0FF30F9E710B588B08D
:104B100000240594069407AA06A905A800F0E8FD5C
:104B2000059B0293069B019300942346079A18491C
:104B30001848FFF77DFF184B186040B100F04CFBA0
:104B4000012806D0B0F1FF3F18D008B010BD0020FA
:104B5000F6E74FF0500383F31188BFF36F8FBFF375
:104B60004F8F0E4B4FF0FF321A600D4B01221A602F
:104B70000C4B00221A6000F0E7FFE6E74FF050030D
:104B800083F31188BFF36F8FBFF34F8FFEE700BF32
:104B900024BF00088D490008C40C0020C80C002068
:104BA000E40C0020100D0020024A1368013313604A
:104BB000704700BF900C0020014B1868704700BF81
:104BC000100D0020F8B53A4B1B68002B64D1394B0F
:104BD0001D6801351D60C5B9374B1B681B6843B1A3
:104BE0004FF0500383F31188BFF36F8FBFF34F8FE4
:104BF000FEE7314A1168314B186810601960304A7D
:104C0000136801331360FFF791FD2E4B1B68AB4215
:104C100038D900272C4B1B68DB6A03EB83039A000F
:104C20002A4B9B58012B3CD901273AE00127224B04
:104C30001B681B6843B3204B1B68DB68DC68636838
:104C40009D4226D3261D3046FFF70AFAA36A1BB100
:104C500004F11800FFF704FAE36A1D4A1268934250
:104C600001D91B4A136003EB83039A0031461748AE
:104C70001044FFF7D1F9E26A134B1B68DB6A9A42D2
:104C8000D4D2D4E70027D2E70E4B4FF0FF321A60A0
:104C9000C0E70C4A1360BDE70E4A13680133136086
:104CA00000270D4B1B6803B101273846F8BD00BF34
:104CB000900C0020100D00201C080020200800206F
:104CC000CC0C0020C80C002018080020240800206C
:104CD000980C00208C0C0020140D002038B5354BAA
:104CE0001B6843B94FF0500383F31188BFF36F8FF4
:104CF000BFF34F8FFEE700F08DFE2E4B1A68013A8E
:104D00001A601B68002B4FD12B4B1B680BB900247A
:104D10004BE00024294B1B681BB3284BDB68DC6885
:104D200004F11800FFF79CF9251D2846FFF798F9B4
:104D3000E06A234B1B68984201D9214B186000EBB5
:104D4000800029461F4B03EB8000FFF765F9E26AFC
:104D50001D4B1B68DB6A9A42DCD31C4B01221A6094
:104D6000D8E70CB1FFF7E2FC194B1C6884B9174B6C
:104D70001C68D4B14FF0E0234FF08052C3F8042DEB
:104D8000BFF34F8FBFF36F8F01240EE0013C07D0BC
:104D9000FFF718FF0028F9D00C4B01221A60F5E745
:104DA0000B4B00221A60E2E7002400F055FE20467B
:104DB00038BD00BF900C0020840C0020D00C0020D7
:104DC000980C00202408002018080020140D002052
:104DD0008C0C002010B5A8B10446104B1B6843B1E1
:104DE0004FF0500383F31188BFF36F8FBFF34F8FE2
:104DF000FEE7FFF7D9FE00212046FFF7DBFDFFF7B6
:104E00006DFF48B94FF0E0234FF08052C3F8042DF6
:104E1000BFF34F8FBFF36F8F10BD00BF900C00200A
:104E20001F4B1B681BB11F4B01221A6070471D4BA3
:104E300000221A601C4B1B6803EB83018A001B498C
:104E40008A585AB90BB1013BF6E74FF0500383F390
:104E50001188BFF36F8FBFF34F8FFEE703EB830023
:104E600082000A4450684068506003EB830C4FEAAC
:104E70008C020832114488420BD003EB830291006C
:104E80000A4A0A445268D168094A1160064A136006
:104E90007047406862469100044A0A445060ECE75B
:104EA000900C0020140D0020980C002024080020F5
:104EB0001808002058B110B50C46094A116818317D
:104EC000FFF7B5F801212046FFF774FD10BD4FF044
:104ED000500383F31188BFF36F8FBFF34F8FFEE74B
:104EE0001808002038B570B10D4614460A4A1168FA
:104EF0001831FFF791F80CB14FF0FF3521462846E5
:104F0000FFF758FD38BD4FF0500383F31188BFF30E
:104F10006F8FBFF34F8FFEE71808002038B5C368C6
:104F2000DC6824B304F118052846FFF799F8184BFC
:104F30001B682BBB251D2846FFF792F8E06A154B2E
:104F40001B68984201D9134B186000EB800029467A
:104F5000114B03EB8000FFF75FF8E26A0F4B1B6811
:104F6000DB6A9A4211D901200D4B186038BD4FF011
:104F7000500383F31188BFF36F8FBFF34F8FFEE7AA
:104F800029460848FFF748F8E7E70020EEE700BFAA
:104F9000900C0020980C0020240800201808002005
:104FA000140D0020D00C0020034B1B680360034B42
:104FB0001B684360704700BFCC0C0020100D002020
:104FC000F8B5C8B10C460546F9B100F023FD1B4BFE
:104FD00019686B68C81A2268B2F1FF3F26D0184ED4
:104FE00036682F68B74201D08B4224D9824215D847
:104FF0000023236001241AE04FF0500383F311884B
:10500000BFF36F8FBFF34F8FFEE74FF0500383F373
:105010001188BFF36F8FBFF34F8FFEE75B1A134406
:1050200023602846FFF7C0FF002400E0002400F0C2
:1050300013FD2046F8BD0124F9E700BF100D002044
:10504000CC0C0020014B01221A607047140D002087
:10505000054B1B6833B1054B1B680BB10020704733
:105060000220704701207047E40C0020900C0020C3
:1050700000283BD038B504461E4B1B68834208D03D
:105080004FF0500383F31188BFF36F8FBFF34F8F3F
:10509000FEE7036D43B94FF0500383F31188BFF36C
:1050A0006F8FBFF34F8FFEE7013B0365C16AC26C90
:1050B00091421DD00BB1002038BD051D2846FEF7DA
:1050C000CFFFE06CE062C0F13803A3610A4B1B68BC
:1050D000984201D9084B186000EB80002946074B25
:1050E00003EB8000FEF798FF0120E5E70020704702
:1050F0000020E1E718080020980C00202408002078
:10510000064B1A681368B3FA83F35B09036013B99B
:10511000D368186870470020704700BF180D002042
:1051200008B54160006191420CD8D21A83699A4255
:1051300001D3012008BD011D094B1868FEF777FF58
:105140000020F7E79A4201D2994206D2011D054B91
:105150001868FEF76CFF0020ECE70120EAE700BFCB
:105160001C0D0020180D002030B583B000F052FC5B
:10517000114B1B681BB100F06FFC03B030BD0F4D2D
:105180002846FEF73BFF0E4C2046FEF737FF0D4B3F
:105190001D600D4B1C60002300930C4B0C4A10212A
:1051A0000A20FFF763F8044B18600028E3D0094990
:1051B000FFF77EFADFE700BF3C0E0020C00D0020A5
:1051C000D40D0020180D00201C0D0020EC0D002037
:1051D000200D00202CBF000810B588B0FFF7C4FFD9
:1051E000124B1B68CBB100240594069407AA06A9AC
:1051F00005A800F089FA059B0293069B0193022300
:1052000000932346079A0A490A48FFF711FC0A4B04
:10521000186010B1012008B010BD4FF0500383F3A7
:105220001188BFF36F8FBFF34F8FFEE73C0E002056
:1052300034BF000819550008400E0020B8B19C4644
:1052400003461848006858B300B585B00091019234
:10525000029305291CDCFFF7FBFE022810D0002377
:105260001A4669460F480068FFF749F815E04FF005
:10527000500383F31188BFF36F8FBFF34F8FFEE7A7
:105280000023069A694607480068FFF738F804E0EB
:10529000002362466946FFF7F6F805B05DF804FBA7
:1052A000002070473C0E002070B582B01A4B1B687E
:1052B0001A6852B3DB681E68DC68251D2846FEF7B5
:1052C000CFFE636A20469847E369012BEED1A369BC
:1052D00033449E4207D26360246129460E4B18680E
:1052E000FEF7A5FEE2E7002100910B46324620467C
:1052F000FFF7A4FF0028D9D14FF0500383F31188A2
:10530000BFF36F8FBFF34F8FFEE7044A1068024967
:105310000860136002B070BD180D00201C0D002045
:1053200038B50546FFF748FC0446074B1B68834227
:1053300005D800232B60044B1C60204638BDFFF7C6
:10534000B3FF01232B60F6E7E80D002070B582B0B3
:1053500006460D4614490968C968CC68201DFEF749
:105360007FFEE169012904D0636A2046984702B0B4
:1053700070BDA16933462A4631442046FFF7D0FE6E
:105380000028F1D0002100910B4632462046FFF75D
:1053900055FF0028E8D14FF0500383F31188BFF385
:1053A0006F8FBFF34F8FFEE7180D002070B582B0EE
:1053B00006460C46FFF7F8FB01A8FFF7B1FF019B7B
:1053C0002BBB05460CB9B0421AD22CB1124B1B684C
:1053D0001C68B4FA84F464092246711B0F4B1868E8
:1053E000FFF77AF9FFF77AFC98B94FF0E0234FF016
:1053F0008052C3F8042DBFF34F8FBFF36F8F08E0C7
:10540000FFF76CFC29463046FFF7A0FF01E0FFF7ED
:1054100065FC02B070BD00BF1C0D00203C0E0020DA
:1054200010B588B002E0049B002B0FDA002204A91B
:10543000384B1868FFF78DF8002869D0049B002BC3
:10544000F1DA07990698059B9847ECE7069C636993
:1054500013B1201DFEF704FE03A8FFF761FF049BB4
:10546000092BE3D801A252F823F000BF955400089D
:1054700095540008955400082D540008DB5400088A
:105480000155000895540008955400082D54000853
:10549000DB540008059BA169024619442046FFF72A
:1054A0003FFE0028C2D0636A20469847E369012B7B
:1054B000BCD1A269002100910B4605980244204608
:1054C000FFF7BCFE0028B1D14FF0500383F31188E1
:1054D000BFF36F8FBFF34F8FFEE70599A16131B125
:1054E0000346024601442046FFF71AFE9EE74FF0AE
:1054F000500383F31188BFF36F8FBFF34F8FFEE725
:1055000094F82C30002B91D1204600F0E5F98DE77E
:1055100008B010BD3C0E002000B583B001A8FFF715
:10552000EFFD0199FFF742FFFFF77AFFF6E7000072
:10553000EFF3058393B9EFF3108393B90C4B18681D
:10554000022804D080B90A4B01221A607047EFF399
:105550001183002BF6D06FF0050070476FF0050047
:1055600070476FF0050070474FF0FF30704700BF85
:10557000A010002008B5EFF30583B3B9EFF3108353
:10558000B3B90E4B1B68022B08D0012B13D10B4B68
:1055900002221A60FFF7BAFA002008BDEFF3118269
:1055A000002AF2D06FF00500F7E76FF00500F4E78E
:1055B0006FF00500F1E74FF0FF30EEE7A01000209C
:1055C000F0B587B000240494EFF30584002C43D198
:1055D000EFF31083002B3FD1334B1B68022B16D007
:1055E000002839D000238DF8173062B3156895B1C3
:1055F000936903B918235C1E372C51D8546814F0F2
:10560000010F4FD156694EB14FEA960C08E0EFF307
:1056100011830BBBE4E70DF11705E9E74FF0800CB0
:1056200094682CB1D7685B2F02D9176907B1B6B956
:1056300014B14FF0FF340CE0D46894B914699CB1F4
:105640004FF0FF3405E0002418234FF0800C0DF1DB
:105650001705012C0AD0ACB1049807B0F0BD0124A5
:10566000F7E74FF0FF34F4E70024F2E7146992689B
:105670000292019400930B4662462946FFF7D8F93F
:105680000490E9E704AA019200930B461FFA8CF2FA
:105690002946FFF707FA0128DED000230493DBE751
:1056A0000020DAE70020D8E7A010002008B5EFF3CB
:1056B0000583A3B9EFF31083A3B90C4B1B68022B2E
:1056C00002D040B9002008BDEFF31183002BF8D0C1
:1056D0006FF00500F7E7FFF77DFB0020F3E76FF0C1
:1056E0000500F0E76FF00500EDE700BFA010002017
:1056F000034B0360034B0B6080231360704700BFB4
:1057000044100020440E0020034B0360034B0B6049
:105710004FF4807313607047A4140020A41000207D
:10572000124A12F0070F1ED0D11D21F00701C1F55A
:10573000406313440A460E4802600021416013444E
:10574000083B23F007030B48036059601960991A5E
:1057500051601360084B1960084B1960084B4FF0FB
:1057600000421A6070474FF44063E4E704150020DC
:1057700010210020001500200C210020082100200D
:1057800004210020164B1A461B688342FBD3516844
:1057900002EB010C844509D0416800EB010C634524
:1057A00009D00360904219D01060704740680144EE
:1057B00051601046F0E710B40A4C2468A3420BD0A5
:1057C0005B681944416013681B680360904200D015
:1057D00010605DF8044B70470460F7E7704700BF46
:1057E000102100200015002070B50546FFF7DCF9F8
:1057F000344B1B68A3B1344B1B681D424AD135B1F1
:10580000083515F0070F02D025F007050835002DE3
:1058100042D02E4B1B68AB424DD32D4A146804E096
:10582000FFF77EFFE7E722461C466368AB4202D2E1
:105830002368002BF7D1234B1B68A3423DD0166889
:1058400008362368136063685B1B102B10D960193E
:1058500010F0070F08D04FF0500383F31188BFF307
:105860006F8FBFF34F8FFEE743606560FFF78AFFDE
:10587000626816490B689B1A0B60164909688B42CF
:1058800001D214490B60104B1B6813436360002363
:10589000236002E0002600E00026FFF71FFA16F062
:1058A000070F0CD04FF0500383F31188BFF36F8FB5
:1058B000BFF34F8FFEE70026EFE70026EDE7304607
:1058C00070BD00BF00150020042100200821002029
:1058D000102100200C21002080B338B50446A0F12F
:1058E000080550F8043C164A1268134208D14FF0DC
:1058F000500383F31188BFF36F8FBFF34F8FFEE721
:1059000050F8081C41B14FF0500383F31188BFF3E6
:105910006F8FBFF34F8FFEE723EA020340F8043C8A
:10592000FFF742F954F8041C064A13680B4413604D
:105930002846FFF727FFFFF7D1F938BD704700BFB2
:10594000042100200821002082B0002301930D4B88
:105950001B68B3F1FF3F08D04FF0500383F3118869
:10596000BFF36F8FBFF34F8FFEE74FF0500383F30A
:105970001188BFF36F8FBFF34F8F019B002BFCD0BB
:1059800002B070470C00002008480068006880F3EF
:1059900008884FF0000080F3148862B661B6BFF348
:1059A0004F8FBFF36F8F00DF00BF000008ED00E0F6
:1059B000DFF80C00016841F47001016070470000DD
:1059C00088ED00E04FF0807340F8043C21F00101C5
:1059D00040F8081C054B40F80C3C40F8202C6FF0B8
:1059E000020340F8243C4438704700BF495900087E
:1059F000074B19680868B0E8F04F80F30988BFF3D7
:105A00006F8F4FF0000080F311887047AFF3008074
:105A1000180800204FF0500383F31188BFF36F8FF5
:105A2000BFF34F8F0B4A136801331360012B00D073
:105A300070474FF0E023D3F8043D13F0FF0FF7D089
:105A40004FF0500383F31188BFF36F8FBFF34F8F75
:105A5000FEE700BF0C000020094B1B6843B94FF064
:105A6000500383F31188BFF36F8FBFF34F8FFEE7AF
:105A7000013B034A13600BB983F31188704700BFE1
:105A80000C000020000000000000000000000000EA
:105A9000EFF30980BFF36F8F154B1A681EF0100FDC
:105AA00008BF20ED108A20E9F04F10602DE90900B1
:105AB0004FF0500080F31188BFF34F8FBFF36F8F0B
:105AC000FFF7AEF94FF0000080F3118809BC1968A8
:105AD0000868B0E8F04F1EF0100F08BFB0EC108A55
