:020000040800F2
:1000000000300020C59100087D0D00087F0D00081C
:10001000810D0008830D0008850D00080000000018
:100020000000000000000000000000000146000881
:10003000870D000800000000A146000805470008E1
:1000400015920008159200081592000815920008F4
:1000500015920008159200081592000815920008E4
:1000600015920008159200081592000815920008D4
:1000700015920008159200081592000815920008C4
:10008000159200081592000815920008890D0008C5
:10009000990D0008A90D0008159200081592000896
:1000A00015920008B90D0008C90D00081592000846
:1000B0001592000815920008000000001592000833
:1000C00015920008000000000000000015920008D2
:1000D0000000000015920008159200081592000813
:1000E00015920008159200080000000000000000B2
:1000F0000000000000000000000000000000000000
:1001000000000000000000000000000000000000EF
:100110000000000000000000159200081592000881
:1001200000000000000000000000000000000000CF
:1001300000000000000000000000000000000000BF
:100140001592000815920008000000000000000051
:10015000000000000000000000000000000000009F
:10016000000000000000000000000000000000008F
:10017000000000000000000000000000000000007F
:080180000000000015920008C8
:1001900010B5054C237833B9044B13B10448AFF3C1
:1001A00000800123237010BD5002002000000000D9
:1001B000B8A3000808B5034B1BB103490348AFF3CC
:1001C000008008BD0000000054020020B8A3000811
:1001D000034613F8012B002AFBD1181A0138704787
:1001E00001F0FF01102A2BDB10F0070F08D010F8E8
:1001F000013B013A8B422DD010F0070F42B3F6D1EC
:10020000F0B441EA012141EA014122F007047FF004
:1002100000070023F0E80256083C85EA010586EA5B
:10022000010685FA47F5A3FA87F586FA47F6A5FA97
:1002300087F68EB9EED1F0BC01F0FF0102F00702A3
:1002400032B110F8013B013A83EA010313B1F8D14E
:100250000020704701387047002D06BF354603382F
:10026000073815F0010F07D1013015F4807F02BF68
:10027000013015F4C03F0130F0BC0138704700BFB9
:1002800070B54FF0FF0C4CF4E06C1CEA11541DBF2C
:100290001CEA135594EA0C0F95EA0C0F00F0DEF8F7
:1002A0002C4481EA030621EA4C5123EA4C5350EADC
:1002B000013518BF52EA033541F4801143F480132D
:1002C00038D0A0FB02CE4FF00005E1FB02E506F0BE
:1002D0000042E0FB03E54FF00006E1FB03569CF013
:1002E000000F18BF4EF0010EA4F1FF04B6F5007F19
:1002F00064F5407404D25FEA4E0E6D4146EB06068B
:1003000042EAC62141EA55514FEAC52040EA5E5013
:100310004FEACE2EB4F1FD0C88BFBCF5E06F1ED8BD
:10032000BEF1004F08BF5FEA500E50F1000041EBF4
:10033000045170BD06F0004646EA010140EA0200A1
:1003400081EA0301B4EB5C04C2BFD4EB0C0541EAC3
:10035000045170BD41F480114FF0000E013C00F3D8
:10036000AB8014F1360FDEBF002001F0004170BDFC
:10037000C4F10004203C35DA0C341BDC04F1140415
:10038000C4F1200500FA05F320FA04F001FA05F2A1
:1003900040EA020001F0004221F0004110EBD3706E
:1003A00021FA04F642EB06015EEA430E08BF20EA9A
:1003B000D37070BDC4F10C04C4F1200500FA04F33D
:1003C00020FA05F001FA04F240EA020001F00041CF
:1003D00010EBD37041F100015EEA430E08BF20EA42
:1003E000D37070BDC4F1200500FA05F24EEA020E8A
:1003F00020FA04F301FA05F243EA020321FA04F0B9
:1004000001F0004121FA04F220EA020000EBD3706F
:100410005EEA430E08BF20EAD37070BD94F0000F6F
:100420000FD101F00046400041EB010111F4801FA3
:1004300008BF013CF7D041EA060195F0000F18BF54
:10044000704703F00046520043EB030313F4801F90
:1004500008BF013DF7D043EA0603704794EA0C0F4A
:100460000CEA135518BF95EA0C0F0CD050EA410660
:1004700018BF52EA4306D1D181EA030101F00041DD
:100480004FF0000070BD50EA410606BF1046194605
:1004900052EA430619D094EA0C0F02D150EA013611
:1004A00013D195EA0C0F05D152EA03361CBF104652
:1004B00019460AD181EA030101F0004141F0FE41F1
:1004C00041F470014FF0000070BD41F0FE4141F475
:1004D000780170BD81F0004102E000BF83F000436D
:1004E00030B54FEA41044FEA430594EA050F08BFCF
:1004F00090EA020F1FBF54EA000C55EA020C7FEA93
:10050000645C7FEA655C00F0E2804FEA5454D4EB0F
:100510005555B8BF6D420CDD2C4480EA020281EAD9
:10052000030382EA000083EA010180EA020281EA11
:100530000303362D88BF30BD11F0004F4FEA013163
:100540004FF4801C4CEA113102D0404261EB410172
:1005500013F0004F4FEA03334CEA133302D05242F8
:1005600063EB430394EA050F00F0A780A4F10104B4
:10057000D5F1200E0DDB02FA0EFC22FA05F28018EE
:1005800041F1000103FA0EF2801843FA05F35941D4
:100590000EE0A5F120050EF1200E012A03FA0EFC53
:1005A00028BF4CF0020C43FA05F3C01851EBE3717D
:1005B00001F0004507D54FF0000EDCF1000C7EEB9A
:1005C00000006EEB0101B1F5801F1BD3B1F5001FD8
:1005D0000CD349085FEA30004FEA3C0C04F10104F7
:1005E0004FEA445212F5800F80F09A80BCF1004F20
:1005F00008BF5FEA500C50F1000041EB045141EAA2
:10060000050130BD5FEA4C0C404141EB0101013C6A
:1006100028BFB1F5801FE9D291F0000F04BF014659
:100620000020B1FA81F308BF2033A3F10B03B3F12B
:1006300020020CDA0C3208DD02F1140CC2F10C02BB
:1006400001FA0CF021FA02F10CE002F11402D8BF19
:10065000C2F1200C01FA02F120FA0CFCDCBF41EAE5
:100660000C019040E41AA2BF01EB0451294330BDB4
:100670006FEA04041F3C1CDA0C340EDC04F1140491
:10068000C4F1200220FA04F001FA02F340EA030068
:1006900021FA04F345EA030130BDC4F10C04C4F1AE
:1006A000200220FA02F001FA04F340EA030029468E
:1006B00030BD21FA04F0294630BD94F0000F83F4D8
:1006C000801306BF81F480110134013D4EE77FEABB
:1006D000645C18BF7FEA655C29D094EA050F08BF07
:1006E00090EA020F05D054EA000C04BF19461046E8
:1006F00030BD91EA030F1EBF0021002030BD5FEA2C
:10070000545C05D14000494128BF41F0004130BD53
:1007100014F580043CBF01F5801130BD01F00045A7
:1007200045F0FE4141F470014FF0000030BD7FEA1A
:10073000645C1ABF194610467FEA655C1CBF0B4615
:10074000024650EA013406BF52EA033591EA030F2C
:1007500041F4002130BD00BF90F0000F04BF002124
:10076000704730B54FF4806404F132044FF0000557
:100770004FF0000150E700BF90F0000F04BF0021D0
:10078000704730B54FF4806404F1320410F0004536
:1007900048BF40424FF000013EE700BF42004FEA31
:1007A000E2014FEA31014FEA02701FBF12F07F43AE
:1007B00093F07F4F81F06051704732F07F4208BF65
:1007C000704793F07F4F04BF41F40021704730B56C
:1007D0004FF4607401F0004521F000411CE700BFB8
:1007E00050EA010208BF704730B54FF000050AE03B
:1007F00050EA010208BF704730B511F0004502D53C
:10080000404261EB41014FF4806404F132045FEA3D
:10081000915C3FF4D8AE4FF003025FEADC0C18BFE6
:1008200003325FEADC0C18BF033202EBDC02C2F1D8
:10083000200300FA03FC20FA02F001FA03FE40EA6A
:100840000E0021FA02F11444BDE600BF4FEA410256
:1008500012F5001215D211D56FF47873B3EB625212
:1008600012D94FEAC12343F0004343EA505311F039
:10087000004F23FA02F018BF404270474FF00000CB
:10088000704750EA013005D111F0004008BF6FF009
:10089000004070474FF00000704700BF014B1868E0
:1008A000704700BF6C02002010B504460268074B79
:1008B0009A4205D0064B1B685B68A34203D010BD6B
:1008C00000F050FFF6E707F0C9FCF8E7002C014004
:1008D000701E002072B6FEE700B597B028220021F6
:1008E0000CA808F0C3FE00230793089309930A930A
:1008F0000B930193029303930493059306930223AE
:100900000C93012210921022119213934FF4601352
:1009100015930CA800F038FFC8B90F2307930221E4
:100920000891002309934FF480620A920B9307A861
:1009300001F07CFA68B9802301934FF4807305932A
:1009400001A801F081FB30B917B05DF804FBFFF797
:10095000C1FFFFF7BFFFFFF7BDFF000008B500F0C4
:10096000EFFEFFF7B9FF00F019F800F007F900F00B
:10097000BBF907F0C5FE00F07FF903F0DBFB00F0E8
:10098000E1F801220349044802F036F903F0F4FBD0
:10099000FEE700BF6C020020FCFF000870B588B0C5
:1009A000002403940494059406940794174B5A6901
:1009B00042F400325A615A6902F400320192019AFB
:1009C0005A6942F480225A615B6903F480230293DE
:1009D000029B0F4E22460821304601F0D9FC01252A
:1009E00003950223049305940694079503A94FF0F9
:1009F000904001F0EFFB08230393049505940694BF
:100A000003A9304601F0E6FB08B070BD00100240BB
:100A10000004004800B585B006E00122C3F850216B
:100A20004FF47A7003F044FC4FF4C0410B4B18684C
:100A300003F0B0FF0A4BB3F99C30ADF80E30002143
:100A4000009102230DF10E0204F083F8054B1B68A0
:100A50005B695B6B002BE0D1E2E700BF1000002078
:100A600010010020701E002000B587B02A4B0293B1
:100A70002A4B03932A4B0193FFF710FF8DF80000D8
:100A80007D238DF80230684607F07CFB07F0A2FB5F
:100A9000244C204608F03AF80121204608F0B4F82A
:100AA000204608F03DF9FFF757FE02460B461E4C64
:100AB000C4E9002300221D4BFFF7E2FB14A3D3E996
:100AC0000023FFF7DDFB02460B46C4E900230022AA
:100AD000174BFFF7D5FB0022164BFFF7FFFC024632
:100AE0000B46154CC4E900230022144BFFF7C8FB4A
:100AF00002460B46C4E90023FFF7A8FE104BA3F8FB
:100B00009C00012002F068FFC0E700BFAFF3008047
:100B10006666666666660A40880200207D0B0008ED
:100B2000EC020020B81E0020800200200000303FB0
:100B30000080364000804640780200200000594086
:100B40001001002008B5074A0021074803F03AFBCE
:100B5000064B1860064A0021064803F033FB064B9B
:100B6000186008BDE4A30008150A00087002002000
:100B700008A40008690A00087402002008B50F489C
:100B80000F4B036002234360002383604FF08073A8
:100B9000C3604FF4402303614FF48013436101238A
:100BA000037643768376C3760377437700F092F932
:100BB00000B908BDFFF78EFEFBE700BF88020020EA
:100BC0000064004070B588B000230393049305933C
:100BD000069307930268274B9A4201D008B070BD74
:100BE00003F5D633DA6942F00072DA61DA6902F0AD
:100BF00000720192019A5A6942F400325A615B69AB
:100C000003F400330293029B4FF400630393022426
:100C1000049401230593032606960925079503A945
:100C20004FF0904001F0D6FA4FF4805303930494B0
:100C3000002405940696079503A94FF0904001F013
:100C4000C9FA22460521132001F0BAFB132001F056
:100C5000EFFB22460521142001F0B2FB142001F025
:100C6000E7FB22460521152001F0AAFB152001F023
:100C7000DFFBB3E70064004000B589B000230493B4
:100C80000593069307930193029303931448154A1F
:100C90000260436083604FF6FF72C260036183614C
:100CA00001F026FF90B94FF48053049304A90C4837
:100CB00001F056FE68B900230193039301A9084887
:100CC00001F050FF40B909B05DF804FBFFF702FEE8
:100CD000E9E7FFF7FFFDEEE7FFF7FCFDF3E700BFF5
:100CE000A80300200004004008B50A480A4B03602E
:100CF0003F234360002383604FF47A72C260036134
:100D00004361836101F0F4FE00B908BDFFF7E2FD25
:100D1000FBE700BFEC0200200048014000B583B0B3
:100D20000368134A934205D0124A93420DD003B090
:100D30005DF804FB104BDA6942F00202DA61DB690C
:100D400003F002030093009BF1E70B4B9A6942F416
:100D500080229A619B6903F480230193019B002206
:100D600005211A2001F02CFB1A2001F061FBDEE7BF
:100D7000000400400048014000100240FEE7FEE78A
:100D8000FEE7FEE7FEE7704708B5024800F0BBFB50
:100D900008BD00BF8802002008B5024800F0B3FB80
:100DA00008BD00BF8802002008B5024800F0ABFB78
:100DB00008BD00BF8802002008B5024801F0CAFB48
:100DC00008BD00BF6404002008B5024801F0C2FB62
:100DD00008BD00BFEC02002000B583B00D4B9A693E
:100DE00042F001029A619A6902F001020092009AAF
:100DF000DA6942F08052DA61DB6903F080530193D3
:100E0000019B00220F216FF0010001F0D9FA03B01D
:100E10005DF804FB0010024008B500F0A3FC08BD1B
:100E200030B589B00446214B9A6942F400629A6158
:100E30009B6903F400630193019B02A903A801F0DD
:100E4000E5F801F0CDF803461948A0FB03239B0CFD
:100E5000013B1848184A026040F2E732C260436022
:100E6000002303618360836101F042FE054638B1CF
:100E7000124A0E210F4801F049FC284609B030BD46
:100E80000C4801F02DFB05460028F1D1192001F096
:100E9000CFFA0F2C01D90125EAE7002221461920BB
:100EA00001F08EFA064B1C60E2E700BF0010024022
:100EB00083DE1B4364040020002C0140190E00084F
:100EC00004000020704770477047704770477047B4
:100ED00070477047002800F0C08038B5044690F88D
:100EE0002030F3B95E4B03645E4B43645E4B836416
:100EF0005E4BC3645E4B83625E4BC3625E4B0363B7
:100F00005E4B43635E4B83635E4BC3635E4B036523
:100F10005E4B43655E4B8365C36DEBB1E36D20466D
:100F200098472268136843F00103136000F026FC21
:100F3000054623685A6812F0010F10D100F01EFC1C
:100F4000401B0A28F5D9636A43F400336362052322
:100F500084F82030012038BD4E4BC365DEE71A68A7
:100F600022F002021A6000F009FC054623685A6864
:100F700012F0020F0DD000F001FC401B0A28F5D939
:100F8000636A43F400336362052384F82030012050
:100F9000E1E7227E012A3DD01A6822F080021A6021
:100FA000637E012B3BD02268136823F0400313605B
:100FB000A37E012B39D02268136823F0200313602D
:100FC000E37E012B37D02268136843F010031360CF
:100FD000237F012B35D02268136823F008031360A8
:100FE000637F012B33D02268136823F0040313605E
:100FF000A368E2681343226913436269134362687A
:10100000013A21681343CB6100206062012384F818
:101010002030A0E71A6842F080021A60C0E7226818
:10102000136843F040031360C2E72268136843F07B
:1010300020031360C4E72268136823F010031360D1
:10104000C6E72268136843F008031360C8E7226804
:10105000136843F004031360CAE70120704700BF20
:1010600051860008CB0E00085D860008CD0E0008F2
:10107000C5860008D9860008ED860008C50E000860
:10108000C70E0008C90E0008CF0E0008D10E0008D8
:10109000D30E0008C50B0008026890F82030013B11
:1010A000DBB2012B05D9436A43F48023436201205C
:1010B000704730B4D2F8003243F00103C2F8003276
:1010C0004B6903F01F03012000FA03F3D2F81C025E
:1010D0006FEA030C20EA0300C2F81C02C869B0B929
:1010E000D2F80C020CEA0000C2F80C028C884869A5
:1010F000CD6844EA0544483042F830400C884869DD
:101100008D6844EA0544483002EBC0004460C86979
:1011100001281BD0886980BBD2F804020CEA0000C9
:10112000C2F80402086970BBD2F814020CEA00008D
:10113000C2F81402096A01292BD0D2F8003223F038
:101140000103C2F80032002030BC7047D2F80C0214
:101150001843C2F80C028C8848690D6844EA0544BB
:10116000483042F830408C8948698D6844EA05442B
:10117000483002EBC0004460CCE7D2F804021843C8
:10118000C2F80402CEE7D2F814021843C2F81402DF
:10119000D0E7D2F81C120B43C2F81C32CDE770B571
:1011A000044690F82050EDB2012D06D0436A43F476
:1011B000002343620125284670BD022380F82030B9
:1011C0000268136823F00103136000F0D7FA0646A3
:1011D00023685B6813F0010F0CD000F0CFFA831B7B
:1011E0000A2BF5D9636A43F400336362052384F85C
:1011F0002030E0E700256562DDE738B5044690F869
:101200002030DBB2022B05D0436A43F480134362E3
:10121000012038BD0268136843F00103136000F039
:10122000ADFA054623685A6812F0010F0DD100F09F
:10123000A5FA431B0A2BF5D9636A43F400336362B2
:10124000052384F820300120E3E71A6822F0020227
:101250001A60012384F820300020DAE730B590F8D6
:1012600020C00468A4680CF1FF3C5FFA8CFCBCF160
:10127000010F62D814F0E05F59D0C4F3016C01246F
:1012800004FA0CF41C608B68002B3DD10D68CB6810
:10129000046843EA45550CF118031B01E550036847
:1012A0000C690CF1180E03EB0E135C600B7D012B27
:1012B00035D0D17993791B0443EA0163517943EA2C
:1012C000012314790168234301EB0C11C1F88C311F
:1012D000D17893781B0443EA0163517843EA0123F0
:1012E000117802680B4302EB0C12C2F888310268D5
:1012F0000CF1180C4FEA0C1C52F80C3043F00103AF
:1013000042F80C3000201DE04C6843EAC403CC686E
:1013100023430CF11804240105682B51BFE703682F
:1013200003EB0E13596841F480715960C1E7436AB9
:1013300043F400134362012004E0436A43F4802332
:101340004362012030BD90F82030013BDBB2012B1D
:1013500001D9002070470368986810F0806000D0C1
:1013600001209A6812F0006F00D001309B6813F0E2
:10137000805FEFD00130704790F820C00CF1FF3C47
:101380005FFA8CFCBCF1010F00F2A58030B451B9BA
:101390000468E46814F0030F10D1436A43F40013A7
:1013A000436201207EE00468246914F0030F05D134
:1013B000436A43F400134362012073E0056801F1BE
:1013C0001B0424012C5904F004049460002C6BD1FC
:1013D000056801F11B0424012C59640D1460046894
:1013E00001F11B0C4FEA0C1C54F80C4004F00204F1
:1013F000D4600468A444DCF8045015F0080F5BD0F6
:1014000008241461056801F11B0C05EB0C156D68CF
:10141000C5F307259561046804EB0C146468240C7B
:101420005461026802EB0112D2F8B8211A70026806
:1014300002EB0112D2F8B821C2F307225A700268F7
:1014400002EB0112D2F8B821C2F307429A70026887
:1014500002EB0112D2F8B821120EDA70026802EB28
:101460000112D2F8BC211A71026802EB0112D2F803
:10147000BC21C2F307225A71026802EB0112D2F8B2
:10148000BC21C2F307429A71026802EB0112D2F842
:10149000BC21120EDA71C1B90268D36843F020038F
:1014A000D360002030BC7047056801F11B042401A3
:1014B0002C59E408546092E701F11B0504EB051474
:1014C000646804F00F0414619CE70268136943F038
:1014D00020031361E5E7436A43F48023436201205C
:1014E000704790F82030013BDBB2012B05D9436AED
:1014F00043F4802343620120704702685369194313
:101500005161002070472DE9F84F044603685D697A
:10151000D3F804809F68D3F80CB0D3F810A0D3F8A8
:10152000189015F0010627D017F0010608D0012207
:101530009A6017F0020F00F0AC80836A984700268B
:1015400017F4807F0AD023684FF480729A6017F4F2
:10155000007F00F0AD80E36A2046984717F4803F93
:101560000AD023684FF480329A6017F4003F00F0ED
:10157000AF80236B2046984715F0080F07D01BF06B
:10158000100F04D046F4007623681022DA6015F0BC
:10159000040F08D01BF0080F05D023680822DA607A
:1015A000636C2046984715F0020F07D02368DB686C
:1015B00013F0030F02D0236C2046984715F0400F1C
:1015C00007D01AF0100F04D046F48066236810226A
:1015D0001A6115F0200F08D01AF0080F05D0236803
:1015E00008221A61E36C2046984715F0100F07D0C7
:1015F00023681B6913F0030F02D0A36C20469847A1
:1016000015F4003F08D018F0100F05D02368102201
:101610005A60236D2046984715F4803F08D018F093
:10162000080F05D0236808225A60636D204698474A
:1016300015F4004F69D018F0040F63D015F4807FC3
:1016400004D019F0010F01D046F0010615F4007F17
:1016500004D019F0020F01D046F0020615F4806F95
:1016600004D019F0040F01D046F0040615F4006F01
:1016700048D019F0700945D0B9F1400F5AD04DD873
:10168000B9F1200F53D0B9F1300F31D146F0200617
:1016900033E017F0040F05D117F0080605D1436BAE
:1016A00098474DE74FF400664AE74FF4805647E706
:1016B00017F4806F02D046F400564FE717F4006F1E
:1016C00002D046F4804649E7A36B2046984745E799
:1016D00017F4802F02D046F400464DE717F4002F90
:1016E00002D046F4803647E7E36B2046984743E74D
:1016F000B9F1100F01D146F008062268936923F072
:1017000070039361236804225A602EB1636A1E43FA
:101710006662A36D20469847BDE8F88FB9F1500F77
:101720000BD0B9F1600FE8D146F48076E5E746F0DA
:101730001006E2E746F04006DFE746F08006DCE709
:1017400008B5074A136843F010031360032000F044
:1017500025FE0F20FFF764FBFFF73EFB002008BDCE
:1017600000200240034A1168034B1B780B441360AE
:10177000704700BF2005002000000020014B1868C2
:10178000704700BF20050020002800F0018370B5DD
:1017900082B00446036813F0010F3BD0B54B5B6881
:1017A00003F00C03042B1ED0B24B5B6803F00C0358
:1017B000082B13D06368B3F5803F68D0002B40F04E
:1017C000928003F1804303F504331A6822F48032D7
:1017D0001A601A6822F480221A605DE0A54B5B68EB
:1017E00013F4803FE6D04FF4003393FAA3F3A14BF8
:1017F00019684FF4003393FAA3F3B3FA83F303F0B9
:101800001F03012202FA03F30B4203D06368002B8B
:1018100000F0C082236813F0020F00F0C580954BE2
:101820005B6813F00C0F00F09C80924B5B6803F038
:101830000C03082B00F08F802369002B00F0F2804E
:10184000012292FAA2F3B3FA83F303F1845303F56E
:1018500084139B001A60FFF791FF0546022393FA59
:10186000A3F3844B1968022393FAA3F3B3FA83F327
:1018700003F01F03012202FA03F30B4240F0C3807E
:10188000FFF77CFF401B0228E8D903208BE2794A4E
:10189000136843F480331360764AD36A23F00F034E
:1018A000A1680B43D3626368002B36D0FFF766FF55
:1018B00005464FF4003393FAA3F36E4B19684FF4C7
:1018C000003393FAA3F3B3FA83F303F01F03012267
:1018D00002FA03F30B429DD1FFF750FF401B64282F
:1018E000E7D903205FE2B3F5A02F09D0614B1A6856
:1018F00022F480321A601A6822F480221A60CBE740
:1019000003F18043A3F53C331A6842F480221A6045
:101910001A6842F480321A60BEE7FFF72FFF0546CF
:101920004FF4003393FAA3F3524B19684FF400338A
:1019300093FAA3F3B3FA83F303F01F03012202FA2D
:1019400003F30B423FF466AFFFF718FF401B642818
:10195000E6D9032027E2474B5B6813F4803F7FF40E
:101960006BAF022393FAA3F3424B1968022393FA55
:10197000A3F3B3FA83F303F01F03012202FA03F384
:101980000B4203D02369934240F006823948036832
:1019900023F0F8036169F82292FAA2F2B2FA82F215
:1019A00001FA02F213430360236813F0080F00F0FA
:1019B0008D80A369002B61D0012191FAA1F2B2FAC6
:1019C00082F22D4B13449B001960FFF7D7FE0546AA
:1019D000022393FAA3F293FAA3F293FAA3F2254A0D
:1019E000516A93FAA3F3B3FA83F303F01F030122BE
:1019F00002FA03F30B4269D1FFF7C0FE401B022835
:101A0000E6D90320CFE11B48036823F0F80361699E
:101A1000F82292FAA2F2B2FA82F201FA02F2134327
:101A20000360C1E7012393FAA3F3B3FA83F303F14D
:101A3000845303F584139B0000221A60FFF79EFE77
:101A40000546022393FAA3F30A4B1968022393FA7B
:101A5000A3F3B3FA83F303F01F03012202FA03F3A3
:101A60000B42A1D0FFF78AFE401B0228E9D90320D0
:101A700099E100BF0010024020819010012292FAEB
:101A8000A2F2B2FA82F2B74B13449B0000221A6012
:101A9000FFF774FE0546022393FAA3F293FAA3F22A
:101AA00093FAA3F2B04A516A93FAA3F3B3FA83F319
:101AB00003F01F03012202FA03F30B4206D0FFF7E3
:101AC0005DFE401B0228E6D903206CE1236813F079
:101AD000040F00F0A980A44BDB6913F0805F20D1D4
:101AE000A14BDA6942F08052DA61DB6903F080537E
:101AF0000193019B01259D4B1B6813F4807F12D03D
:101B0000E368012B23D073BB03F1804303F5043357
:101B10001A6A22F001021A621A6A22F004021A6298
:101B20001AE00025E7E7914A136843F480731360D5
:101B3000FFF724FE06468D4B1B6813F4807FDFD130
:101B4000FFF71CFE801B6428F5D903202BE1864A91
:101B5000136A43F001031362E368002B3CD0FFF7E4
:101B60000DFE06462BE0052B09D07F4B1A6A22F0AA
:101B700001021A621A6A22F004021A62ECE77A4B36
:101B80001A6A42F004021A621A6A42F001021A62E8
:101B9000E2E7754B196A022393FAA3F3B3FA83F3CE
:101BA00003F01F03012202FA03F319423BD1FFF7AE
:101BB000E5FD801B41F28833984200F2EF8002235A
:101BC00093FAA3F293FAA3F3002BE2D1022393FA40
:101BD000A3F3654B596ADEE7FFF7D0FD064615E033
:101BE000614B196A022393FAA3F3B3FA83F303F068
:101BF0001F03012202FA03F3194214D0FFF7BEFDBE
:101C0000801B41F28833984200F2CA80022393FA83
:101C1000A3F293FAA3F3002BE2D1022393FAA3F3E6
:101C2000514B596ADEE7B5BBE369002B00F0BA807F
:101C30004D4A526802F00C02082A00F09980022BEB
:101C40002FD04FF0807393FAA3F3B3FA83F303F129
:101C5000845303F584139B0000221A60FFF78EFD66
:101C600004464FF0007393FAA3F33F4B19684FF00B
:101C7000007393FAA3F3B3FA83F303F01F03012273
:101C800002FA03F319426BD0FFF778FD001B02281C
:101C9000E7D9032087E0344AD36923F08053D36126
:101CA000C2E74FF0807393FAA3F3B3FA83F303F11F
:101CB000845303F584139B0000221A60FFF75EFD36
:101CC00005464FF0007393FAA3F3274B19684FF0C2
:101CD000007393FAA3F3B3FA83F303F01F03012213
:101CE00002FA03F3194206D0FFF748FD401B022811
:101CF000E7D9032057E01C494B6823F47413626A48
:101D0000206A024313434B604FF0807393FAA3F3AE
:101D1000B3FA83F303F1845303F584139B00012288
:101D20001A60FFF72BFD04464FF0007393FAA3F3FC
:101D30000D4B19684FF0007393FAA3F3B3FA83F3D2
:101D400003F01F03012202FA03F3194206D1FFF741
:101D500015FD001B0228E7D9032024E0002022E023
:101D6000002020E020819010001002400070004010
:101D7000012B1AD0104B5B6803F48031226A914228
:101D800015D103F47013626A934212D100200AE065
:101D900001207047012006E0012004E0032002E05A
:101DA000032000E0002002B070BD0120FBE701200D
:101DB000F9E70120F7E700BF00100240164B5B680F
:101DC00003F00C02082A01D01448704703F4701184
:101DD0004FF4701292FAA2F2B2FA82F221FA02F2EF
:101DE0000F49885C0C4AD26A02F00F020F2191FA67
:101DF000A1F1B1FA81F1CA400A498A5C13F4803F2B
:101E000005D0064BB3FBF2F303FB00F07047064B23
:101E100003FB00F0704700BF0010024000127A0080
:101E20002CA400083CA4000800093D00002800F094
:101E3000BE8070B50D460446614B1B6803F0070376
:101E40008B420BD25E4A136823F007030B431360E7
:101E5000136803F007038B4240F0AB80236813F054
:101E6000020F06D0574A536823F0F003A1680B43D2
:101E70005360236813F0010F5AD06368012B2DD0F3
:101E8000022B40D0022292FAA2F24E4A106802229D
:101E900092FAA2F2B2FA82F202F01F02012101FAD2
:101EA00002F2104200F0878046494A6822F003029D
:101EB00013434B60FFF762FC0646424B5B6803F03E
:101EC0000C036268B3EB820F32D0FFF757FC801B24
:101ED00041F288339842F0D9032067E04FF4003292
:101EE00092FAA2F2374A10684FF4003292FAA2F244
:101EF000B2FA82F202F01F02012101FA02F202425A
:101F0000D2D1012052E04FF0007292FAA2F22D4A93
:101F100010684FF0007292FAA2F2B2FA82F202F066
:101F20001F02012101FA02F21042BDD101203DE061
:101F3000234B1B6803F00703AB420AD9204A1368FE
:101F400023F007032B431360136803F00703AB422E
:101F500033D1236813F0040F06D01A4A536823F4D0
:101F6000E063E1680B435360236813F0080F07D068
:101F7000144A536823F46053216943EAC103536050
:101F8000FFF71CFF0F4B5B6803F0F003F02292FA9F
:101F9000A2F2B2FA82F2D3400B4AD35CD8400B4B88
:101FA00018600B4B1868FEF73BFF002070BD012046
:101FB00070470120FAE70120F8E70120F6E700BFAB
:101FC00000200240001002404CA40008080000203D
:101FD00004000020014B1868704700BF0800002073
:101FE00008B5FFF7F7FF074B5B6803F460534FF446
:101FF000605292FAA2F2B2FA82F2D340024AD35C61
:10200000D84008BD001002405CA400080F23036004
:102010000B4B5A6802F0030242605A6802F0F00269
:1020200082605A6802F4E062C2605B68DB0803F415
:10203000E0630361034B1B6803F007030B60704709
:102040000010024000200240F0B583B0044603684F
:1020500013F4803F44D05C4BDB6913F0805F6DD19B
:10206000594BDA6942F08052DA61DB6903F0805340
:102070000193019B0125554B1B6813F4807F5FD0B2
:10208000514B1B6A13F4407321D0626802F4407212
:102090009A421CD04C48016A21F440764FF48033B8
:1020A00093FAA3F2B2FA82F2494F3A4492004FF007
:1020B000010CC2F800C093FAA3F3B3FA83F33B44D4
:1020C0009B0000221A60066211F0010F4CD13E4ABB
:1020D000136A23F4407361680B431362002D69D1C6
:1020E000236813F0010F06D0374A136B23F0030364
:1020F000A1680B431363236813F0200F06D0324A04
:10210000136B23F01003E1680B431363236813F090
:10211000800F06D02C4AD36A23F4F87321690B434D
:10212000D362236813F4805F4BD0274A136B23F4E8
:10213000807361690B431363002043E000259AE735
:10214000224A136843F480731360FFF717FB0646B7
:102150001E4B1B6813F4807F92D1FFF70FFB801B8F
:102160006428F5D903202DE0FFF708FB064614E0AC
:10217000154B196A022393FAA3F3B3FA83F303F01E
:102180001F03012202FA03F30B42A0D1FFF7F6FA74
:10219000801B41F28833984211D8022393FAA3F2AC
:1021A00093FAA3F3002BE3D1022393FAA3F3064B94
:1021B000596ADFE7D36923F08053D36190E70320A6
:1021C00000E0002003B0F0BD0010024000700040AD
:1021D00000819010F0B583B0002362E085685E0056
:1021E0000324B44025EA0405CC68B4402C43846041
:1021F000446824EA0C0C4C68C4F300149C4044EA84
:102200000C0444605EE0DD08083550F8256003F0FA
:1022100007044FEA840C0F2404FA0CF426EA040E97
:102220000C6904FA0CF444EA0E0440F8254060E01E
:10223000032400E0002404FA0EF42C430CF1020CF9
:102240004F4D45F82C404F4CA568D44325EA020673
:102250004F6817F4801F01D042EA0506494DAE6071
:10226000ED6804EA05064F6817F4001F01D042EA42
:102270000506444DEE606D6804EA05064F6817F4E4
:10228000003F01D042EA05063E4D6E602D682C40AD
:102290004E6816F4803F01D042EA0504394A1460C2
:1022A00001330A6832FA03F468D04FF0010C0CFADB
:1022B00003FC1CEA0202F3D04C6804F00304013C66
:1022C000012C8BD94C6804F00304032C0CD0C46897
:1022D0005D004FF0030C0CFA05FC24EA0C0C8C6832
:1022E000AC4044EA0C04C4604C6804F00304022CC3
:1022F00089D004684FEA430E4FF0030C0CFA0EFC31
:1023000024EA0C0C4C6804F0030404FA0EF444EACA
:102310000C0404604C6814F4403FC1D01A4CA56909
:1023200045F00105A561A46904F001040194019C34
:102330004FEA930C0CF10205114C54F8255003F0B0
:1023400003044FEA840E0F2404FA0EF425EA040570
:10235000B0F1904F3FF46EAF0C4CA0420AD004F5A0
:102360008064A04208D004F58064A0423FF460AFCE
:10237000052460E701245EE702245CE703B0F0BDBA
:102380000000014000040140001002400004004829
:102390000AB181617047816270470000074AD368C3
:1023A00023F4E0631B041B0C000200F4E060034311
:1023B00043F0BF6343F40033D360704700ED00E0A7
:1023C00000B5194BDB68C3F30223C3F1070CBCF162
:1023D000040F28BF4FF0040C03F1040EBEF1060FEA
:1023E00018D9033B4FF0FF3E0EFA0CFC21EA0C011A
:1023F00099400EFA03F322EA0303194300280BDB8A
:102400000901C9B200F1604000F5614080F8001395
:102410005DF804FB0023E5E700F00F000901C9B2F5
:10242000024B1954F4E700BF00ED00E014ED00E0AA
:10243000002807DB00F01F02400901239340024AF5
:1024400042F82030704700BF00E100E0BFF34F8F3B
:102450000549CA6802F4E062044B1343CB60BFF342
:102460004F8F00BFFDE700BF00ED00E00400FA055C
:1024700070477047704770477047704770477047A4
:10248000704710B4036A046A24F00104046284698A
:1024900024F0F00C4CEA021223F00A030B43826191
:1024A00003625DF8044B704710B4046A24F0100412
:1024B00004628469036A24F4704C4CEA023223F00B
:1024C000A00343EA0113826103625DF8044B704785
:1024D000836823F070030B4343F007038360704766
:1024E00090F83D30DBB2012B2AD1022380F83D3039
:1024F0000268D36843F00103D3600368134A934230
:1025000010D0B3F1804F0DD0A2F59432934209D090
:1025100002F59E32934205D01A6842F001021A6019
:102520000020704799680A4A0A40062A0AD0B2F584
:10253000803F09D01A6842F001021A6000207047FB
:10254000012070470020704700207047002C014098
:102550000700010010B5044603681A6912F0020F63
:1025600013D0DA6812F0020F0FD06FF002021A6176
:102570000123037703689B6913F0030F00F0A38026
:10258000D0F8943098470023237723681A6912F013
:10259000040F14D0DA6812F0040F10D06FF00402A8
:1025A0001A610223237723689B6913F4407F00F0AC
:1025B0009280D4F8943020469847002323772368EC
:1025C0001A6912F0080F14D0DA6812F0080F10D050
:1025D0006FF008021A61042323772368DB6913F084
:1025E000030F00F08180D4F89430204698470023F0
:1025F000237723681A6912F0100F13D0DA6812F0EB
:10260000100F0FD06FF010021A6108232377236890
:10261000DB6913F4407F70D0D4F89430204698479B
:102620000023237723681A6912F0010F0AD0DA68B1
:1026300012F0010F06D06FF001021A61D4F8843055
:102640002046984723681A6912F0800F0AD0DA688A
:1026500012F0800F06D06FF080021A61D4F8B43007
:102660002046984723681A6912F4807F0AD0DA68F6
:1026700012F0800F06D06FF480721A61D4F8B8306F
:102680002046984723681A6912F0400F0AD0DA688A
:1026900012F0400F06D06FF040021A61D4F88C306F
:1026A0002046984723681A6912F0200F0AD0DA688A
:1026B00012F0200F06D06FF020021A61D4F8AC306F
:1026C0002046984710BDD0F89C309847D4F8A030E9
:1026D0002046984757E7D4F89C3020469847D4F8CE
:1026E000A0302046984768E7D4F89C3020469847A9
:1026F000D4F8A0302046984779E7D4F89C3020469B
:102700009847D4F8A0302046984789E7002A00F07F
:10271000C88010B4844690F83D30D8B2012812D059
:102720009CF83D3003F0FF00002B40F0BC800D29E9
:1027300000F2BD80DFE801F08A8E9194979A9DA007
:10274000A3A6A9ACAFB21B2900F2AE80DFE801F06E
:102750000E12161A1E22262A2E32363A3E42464AB9
:102760004E52565A5E62666A6E72767ACCF84C2089
:10277000084699E0CCF85020002095E0CCF8542091
:10278000002091E0CCF8582000208DE0CCF85C20AF
:10279000002089E0CCF86020002085E0CCF864209F
:1027A000002081E0CCF8682000207DE0CCF86C208F
:1027B000002079E0CCF87020002075E0CCF874207F
:1027C000002071E0CCF8782000206DE0CCF87C206F
:1027D000002069E0CCF88020002065E0CCF884205F
:1027E000002061E0CCF8882000205DE0CCF88C204F
:1027F000002059E0CCF89020002055E0CCF894203F
:10280000002051E0CCF8982000204DE0CCF89C202E
:10281000002049E0CCF8A020002045E0CCF8A4201E
:10282000002041E0CCF8A82000203DE0CCF8AC200E
:10283000002039E0CCF8B020002035E0CCF8B420FE
:10284000002031E0CCF8B82000202DE0CCF84C205E
:10285000084629E0CCF8502026E0CCF8542023E0AC
:10286000CCF8582020E0CCF85C201DE0CCF86020AB
:102870001AE0CCF8642017E0CCF8682014E0CCF81B
:102880006C2011E0CCF870200EE0CCF874200BE046
:10289000CCF8782008E0CCF87C2005E0CCF880204B
:1028A00002E00120704701205DF8044B70470120D1
:1028B000FAE700000368224A904206D0B0F1804F48
:1028C00003D0A2F59432904203D123F070034A68FA
:1028D00013431B4A904212D0B0F1804F0FD0A2F5A3
:1028E000943290420BD002F59E32904207D002F50E
:1028F0008062904203D002F58062904203D123F4BB
:102900004073CA68134323F080034A69134303608A
:102910008B68C3620B688362094B98420BD003F546
:10292000A053984207D003F58063984203D003F583
:102930008063984201D10B690363012343617047AF
:10294000002C014010B4846824F47F4C42EA032236
:102950000A4342EA0C0282605DF8044B70470000B3
:1029600090F83C30012B76D010B50446012380F856
:102970003C30022380F83D3002689068374B0340BA
:1029800093600B68602B4CD029D8402B54D00CD9C5
:10299000502B22D1CA6849682068FFF772FD502188
:1029A0002068FFF795FD002005E0202B0DD009D908
:1029B000302B0AD00120012384F83D30002384F815
:1029C0003C3010BD0BB1102B05D119462068FFF724
:1029D0007FFD0020EFE70120EDE70120EBE7B3F5F5
:1029E000805F34D0B3F5005F0CD1CB684A6889684A
:1029F0002068FFF7A7FF2268936843F48043936041
:102A00000020D8E7702B24D1CB684A6889682068F9
:102A1000FFF798FF2268936843F0770393600020E4
:102A2000C9E7CA6849682068FFF73EFD6021206851
:102A3000FFF74EFD0020BEE7CA6849682068FFF72F
:102A400020FD40212068FFF743FD0020B3E7002070
:102A5000B1E70120AFE70220704700BF8800FEFF0A
:102A6000154BC0F88430154BC0F88830144BC0F8B3
:102A70008C30144BC0F89030134BC0F89430134B8B
:102A8000C0F89830124BC0F89C30124BC0F8A03000
:102A9000114BC0F8A430114BC0F8A830104BC0F84F
:102AA000AC30104BC0F8B0300F4BC0F8B4300F4B07
:102AB000C0F8B830704700BFA908000871240008AA
:102AC0007D2400087F24000875240008772400086E
:102AD00073240008792400087B240008812400085E
:102AE000DD2B0008DF2B0008E12B0008E32B00089A
:102AF000A0B310B5044690F83D3013B3022384F818
:102B00003D30214651F8040BFFF7D4FE012384F831
:102B1000483084F83E3084F83F3084F8403084F800
:102B2000413084F8423084F8433084F8443084F8EB
:102B3000453084F8463084F8473084F83D30002032
:102B400010BD80F83C30FFF78BFFE36C1BB1E36CEA
:102B500020469847D2E7024BE364F8E7012070472C
:102B60001D0D000890F83C30012B33D030B4012308
:102B700080F83C30022380F83D3002685368946846
:102B8000154DAA4221D023F070030D682B435360EA
:102B90000368114A93420AD0B3F1804F07D0A2F5DF
:102BA0009432934203D002F59E32934204D124F032
:102BB00080048A6814439C60012380F83D30002320
:102BC00080F83C30184630BC704723F470034D68E1
:102BD0002B43D8E702207047002C01407047704714
:102BE00070477047034AD2F8883043F47003C2F844
:102BF0008830704700ED00E003680B60704700F11B
:102C0000080343604FF0FF328260C360036100231A
:102C10000360704700230361704743684B609A6804
:102C20008A605160996008610368013303607047EE
:102C300030B40D68B5F1FF3F11D000F108031C4618
:102C40005B681A68AA42FAD963684B6099608C6025
:102C50006160086103680133036030BC7047046938
:102C6000F2E70369416882688A60416851605A6886
:102C7000824206D0002202611A68013A1A6018687E
:102C8000704782685A60F5E710B5044601F0CAFC47
:102C9000A26BE36B9A4204D0002401F0E5FC2046CD
:102CA00010BD0124F9E710B5044601F0BBFCA36B8D
:102CB00023B9012401F0D8FC204610BD0024F9E717
:102CC00070B504461546866B026C5AB903681BB191
:102CD00000200136A66370BD406800F0CBFF0023E2
:102CE0006360F6E76DB9806806F098FC226CA36813
:102CF0001344A3606268934219D32368A3602846F3
:102D0000E7E7C06806F08AFC226C5142E3689B1A30
:102D1000E3602268934202D263680B44E360022DB1
:102D200001D00020D5E726B1013E0020D1E728469A
:102D3000CFE70020CDE70346026C6AB110B5084624
:102D4000D9681144D9605C68A14201D31968D9607F
:102D5000D96806F063FC10BD704738B5054601F030
:102D600061FC95F8454064B201E0013C64B2002C7E
:102D70000ADD6B6A43B105F1240000F0D1FE0028A2
:102D8000F3D000F061FFF0E7FF2385F8453001F054
:102D90006BFC01F047FC95F8444064B201E0013C53
:102DA00064B2002C0ADD2B6943B105F1100000F07C
:102DB000B7FE0028F3D000F047FFF0E7FF2385F8C7
:102DC000443001F051FC38BD38B5E0B10D46044641
:102DD00001F028FC2368E26B216C01FB023060608B
:102DE0000020A063A360013A02FB0133E360FF23EC
:102DF00084F8443084F84530FDB9236963B901F0A3
:102E000033FC012038BD4FF0500383F31188BFF32A
:102E10006F8FBFF34F8FFEE704F1100000F080FECC
:102E20000028ECD04FF0E0234FF08052C3F8042D7F
:102E3000BFF34F8FBFF36F8FE1E704F11000FFF78F
:102E4000DEFE04F12400FFF7DAFED8E738B51D46B0
:102E5000049C0B4649B92460E063236401212046A9
:102E6000FFF7B2FF84F84C5038BD2260F4E740B958
:102E70004FF0500383F31188BFF36F8FBFF34F8F71
:102E8000FEE710B584B01C46844653B192B189B9AF
:102E90004FF0500383F31188BFF36F8FBFF34F8F51
:102EA000FEE74FF0500383F31188BFF36F8FBFF33A
:102EB0004F8FFEE76AB150230393039B502B13D02F
:102EC0004FF0500383F31188BFF36F8FBFF34F8F21
:102ED000FEE70029EFD04FF0500383F31188BFF3D2
:102EE0006F8FBFF34F8FFEE7012384F846300094C5
:102EF0009DF818306046FFF7A9FF204604B010BDCA
:102F0000F0B585B0019288B10F461D460446B1B1B7
:102F1000022D20D1E36B012B1DD04FF0500383F322
:102F20001188BFF36F8FBFF34F8FFEE74FF0500351
:102F300083F31188BFF36F8FBFF34F8FFEE7036CEE
:102F4000002BE5D04FF0500383F31188BFF36F8F50
:102F5000BFF34F8FFEE700F07DFE064658B9019B98
:102F6000002B48D04FF0500383F31188BFF36F8FCD
:102F7000BFF34F8FFEE700263DE02A463946204644
:102F8000FFF79EFE636A7BB948B14FF0E0234FF034
:102F90008052C3F8042DBFF34F8FBFF36F8F01F042
:102FA00063FB012005B0F0BD04F1240000F0B8FD82
:102FB0000028F4D04FF0E0234FF08052C3F8042DE6
:102FC000BFF34F8FBFF36F8FE9E701F04DFB002098
:102FD000E8E702A800F0EAFD012619E0002384F8E2
:102FE000443021E0002384F8453023E02046FFF7F9
:102FF000B4FE00F075FC01F015FBA26BE36B9A4286
:10300000BBD3022DB9D0019B002BDED0002EE0D027
:1030100001F02AFB00F0CAFB01F004FB94F8442005
:1030200052B2B2F1FF3FD9D094F8452052B2B2F17A
:10303000FF3FD7D001F018FB01A902A800F0C2FDA4
:10304000D8B92046FFF720FE0028CFD0019904F11F
:10305000100000F031FD2046FFF77FFE00F040FC3D
:103060000028C8D14FF0E0234FF08052C3F8042D60
:10307000BFF34F8FBFF36F8FBDE72046FFF76DFEA5
:1030800000F02EFC00208DE72DE9F84390B10F46AB
:1030900016461C460546B1B1022C20D1EB6B012B24
:1030A0001DD04FF0500383F31188BFF36F8FBFF330
:1030B0004F8FFEE74FF0500383F31188BFF36F8FFC
:1030C000BFF34F8FFEE7036C002BE5D04FF05003AA
:1030D00083F31188BFF36F8FBFF34F8FFEE701F0CB
:1030E000C7FBEFF311894FF0500383F31188BFF34F
:1030F0006F8FBFF34F8FAA6BEB6B9A4206D3022CF4
:1031000004D0002089F31188BDE8F88395F8458044
:103110004FFA88F8224639462846FFF7D1FDB8F124
:10312000FF3F06D008F101035BB285F8453001206E
:10313000E8E76B6A0BB90120E4E705F1240000F031
:10314000EFFC18B126B101203060DBE70120D9E7A0
:103150000120D7E7F0B585B0019290B10F46044643
:10316000C1B100F077FD064600BB019B002B5ED08D
:103170004FF0500383F31188BFF36F8FBFF34F8F6E
:10318000FEE74FF0500383F31188BFF36F8FBFF357
:103190004F8FFEE7036C002BE3D04FF0500383F317
:1031A0001188BFF36F8FBFF34F8FFEE700263EE01D
:1031B00039462046FFF7BFFD013DA563236923B9CA
:1031C00001F052FA012005B0F0BD04F1100000F04A
:1031D000A7FC0028F4D04FF0E0234FF08052C3F852
:1031E000042DBFF34F8FBFF36F8FE9E701F03CFA77
:1031F0000020E8E702A800F0D9FC012621E0002326
:1032000084F8443029E0002384F845302BE0204640
:10321000FFF7A3FD00F064FB09E02046FFF79DFDEA
:1032200000F05EFB2046FFF73EFD00283FD101F095
:10323000F9F9A56B002DBBD1019B002BD6D0002E38
:10324000D8D001F011FA00F0B1FA01F0EBF994F8DE
:1032500044305BB2B3F1FF3FD1D094F845305BB25C
:10326000B3F1FF3FCFD001F0FFF901A902A800F0B0
:10327000A9FC0028D1D12046FFF715FD0028C6D0B3
:10328000019904F1240000F017FC2046FFF765FDCA
:1032900000F026FB0028CAD14FF0E0234FF0805207
:1032A000C3F8042DBFF34F8FBFF36F8FBFE700202C
:1032B00089E700000023072B0CD8074A52F8332077
:1032C0000AB10133F7E7044A42F8331002EBC303B3
:1032D00058607047704700BF2405002070B5044651
:1032E0000D46164601F09EF994F844305BB2B3F1F6
:1032F000FF3F0DD094F845305BB2B3F1FF3F0BD0E8
:1033000001F0B2F9A36B5BB12046FFF726FD70BD5B
:10331000002384F84430EDE7002384F84530EFE7DC
:103320003246294604F1240000F0DEFBECE7000001
:10333000084B1B681B6823B9074B4FF0FF321A601C
:103340007047044B1B68DB68DB685A68024B1A60E5
:10335000704700BF68050020140A00202DE9F047DF
:1033600080460D4617469946089EDDF824A00A9C23
:103370009200A521206B06F079F9236B07F18042BA
:10338000013A03EB820727F007074FF0000CBCF16E
:103390000F0F0BD815F80C2004EB0C0383F8342026
:1033A00015F80C3013B10CF1010CF0E7002384F890
:1033B0004330372E00D93726E662E66400252565BE
:1033C000201DFFF727FC04F11800FFF723FC246100
:1033D000C6F13806A6616462656584F858504A46AD
:1033E0004146384601F0F0F82060BAF1000F01D0F4
:1033F000CAF80040BDE8F08738B5002407E004EBC8
:10340000840293000E481844FFF7F9FB0134372C6F
:10341000F5D90C4D2846FFF7F2FB0B4C2046FFF781
:10342000EEFB0A48FFF7EBFB0948FFF7E8FB09480A
:10343000FFF7E5FB084B1D60084B1C6038BD00BF63
:1034400070050020E8090020FC0900201C0A00206B
:10345000480A0020340A0020680500206C0500207E
:1034600010B5044601F0DEF8224A136801331360F8
:10347000214B1B685BB1214B1B686BB91E4B1B6852
:10348000DA6AE36A9A4207D81B4B1C6004E01A4BC5
:103490001C601368012B29D0194A1368013313608B
:1034A0006364E06A174B1B68984201D9154B18609A
:1034B00000EB8000211D144B03EB8000FFF7ADFBF8
:1034C00001F0D2F80D4B1B687BB10B4B1B68DA6A1D
:1034D000E36A9A4209D24FF0E0234FF08052C3F8DA
:1034E000042DBFF34F8FBFF36F8F10BDFFF784FF25
:1034F000D2E700BFD009002064050020300A002078
:10350000E0090020E40900207005002010B5044601
:1035100090F8593063B1012B11D0022B0ED04FF02F
:10352000500383F31188BFF36F8FBFF34F8FFEE714
:10353000006B00F0D3FF204600F0D0FF10BD00F07C
:10354000CDFFFBE70F4B1B68D3B110B501F06AF854
:103550000D4BDB68DC68201DFFF783FB0B4A13680B
:10356000013B1360074A1368013B136001F07CF8CC
:103570002046FFF7CBFF034B1B68002BE6D110BDA5
:10358000704700BFD4090020480A0020D00900205D
:1035900008B5FFF7D7FF074B1B68012BF9D94FF090
:1035A000E0234FF08052C3F8042DBFF34F8FBFF3D9
:1035B0006F8FEEE77005002070B504460D46174B7F
:1035C0001E68174B18680430FFF74BFBB4F1FF3F40
:1035D0000DD03444124B1B685C60A64210D9114BCD
:1035E00018680F4B19680431FFF722FB70BD002DDE
:1035F000EFD00B4B196804310B48FFF70EFBF5E7D2
:103600000A4B1868064B19680431FFF711FB084B89
:103610001B68A342EAD9064B1C60E7E75C0A00205E
:10362000640500206C050020340A00206805002095
:10363000140A002030B587B00B9C7CB10C9DB5B14D
:103640005C250495049D5C2D1AD04FF0500383F344
:103650001188BFF36F8FBFF34F8FFEE74FF050031A
:1036600083F31188BFF36F8FBFF34F8FFEE74FF0E7
:10367000500383F31188BFF36F8FBFF34F8FFEE7C3
:103680000C9D2C63022485F8594000240394029574
:1036900005AC01940A9C0094FFF760FE0C98FFF7BC
:1036A000DFFE059807B030BD2DE9F04385B0074631
:1036B000884614461E46900000F098FE00B38146EE
:1036C0005C2000F093FE0546B0B1C0F83090E5B143
:1036D000002385F85930039302950D9B01930C9BB1
:1036E00000933346224641463846FFF737FE2846C8
:1036F000FFF7B6FE012005E0484600F0EFFEE6E7E2
:103700004FF0FF3005B0BDE8F0834FF0FF30F9E730
:1037100010B588B000240594069407AA06A905A848
:1037200000F0E8FD059B0293069B0193009423465D
:10373000079A18491848FFF77DFF184B186040B1E9
:1037400000F04CFB012806D0B0F1FF3F18D008B0C4
:1037500010BD0020F6E74FF0500383F31188BFF34C
:103760006F8FBFF34F8F0E4B4FF0FF321A600D4B30
:1037700001221A600C4B00221A6000F0EDFFE6E710
:103780004FF0500383F31188BFF36F8FBFF34F8F58
:10379000FEE700BF64A4000891350008100A00206D
:1037A000140A0020300A00205C0A0020024A136834
:1037B00001331360704700BFDC090020014B18681B
:1037C000704700BF5C0A0020F8B53A4B1B68002B1D
:1037D00064D1394B1D6801351D60C5B9374B1B6875
:1037E0001B6843B14FF0500383F31188BFF36F8F11
:1037F000BFF34F8FFEE7314A1168314B18681060F4
:103800001960304A136801331360FFF791FD2E4BA6
:103810001B68AB4238D900272C4B1B68DB6A03EBD3
:1038200083039A002A4B9B58012B3CD901273AE08D
:103830000127224B1B681B6843B3204B1B68DB68C6
:10384000DC6863689D4226D3261D3046FFF709FADF
:10385000A36A1BB104F11800FFF703FAE36A1D4ADB
:103860001268934201D91B4A136003EB83039A0049
:10387000314617481044FFF7D0F9E26A134B1B6832
:10388000DB6A9A42D4D2D4E70027D2E70E4B4FF03E
:10389000FF321A60C0E70C4A1360BDE70E4A136896
:1038A0000133136000270D4B1B6803B10127384615
:1038B000F8BD00BFDC0900205C0A0020680500207C
:1038C0006C050020180A0020140A0020640500205E
:1038D00070050020E4090020D8090020600A0020BB
:1038E00038B5354B1B6843B94FF0500383F311884B
:1038F000BFF36F8FBFF34F8FFEE700F093FE2E4BA9
:103900001A68013A1A601B68002B4FD12B4B1B68B9
:103910000BB900244BE00024294B1B681BB3284B38
:10392000DB68DC6804F11800FFF79BF9251D2846C9
:10393000FFF797F9E06A234B1B68984201D9214BA6
:10394000186000EB800029461F4B03EB8000FFF757
:1039500064F9E26A1D4B1B68DB6A9A42DCD31C4B9C
:1039600001221A60D8E70CB1FFF7E2FC194B1C6882
:1039700084B9174B1C68D4B14FF0E0234FF080524C
:10398000C3F8042DBFF34F8FBFF36F8F01240EE0F8
:10399000013C07D0FFF718FF0028F9D00C4B01229B
:1039A0001A60F5E70B4B00221A60E2E7002400F0F2
:1039B0005BFE204638BD00BFDC090020D009002096
:1039C0001C0A0020E4090020700500206405002086
:1039D000600A0020D809002010B5A8B10446104B99
:1039E0001B6843B14FF0500383F31188BFF36F8F0F
:1039F000BFF34F8FFEE7FFF7D9FE00212046FFF708
:103A0000DBFDFFF76DFF48B94FF0E0234FF0805228
:103A1000C3F8042DBFF34F8FBFF36F8F10BD00BFEE
:103A2000DC0900201F4B1B681BB11F4B01221A60D1
:103A300070471D4B00221A601C4B1B6803EB83016F
:103A40008A001B498A585AB90BB1013BF6E74FF07F
:103A5000500383F31188BFF36F8FBFF34F8FFEE7DF
:103A600003EB830082000A4450684068506003EB17
:103A7000830C4FEA8C020832114488420BD003EBCE
:103A8000830291000A4A0A445268D168094A1160C7
:103A9000064A13607047406862469100044A0A442F
:103AA0005060ECE7DC090020600A0020E4090020F7
:103AB000700500206405002058B110B50C46094A75
:103AC00011681831FFF7B4F801212046FFF774FDA3
:103AD00010BD4FF0500383F31188BFF36F8FBFF316
:103AE0004F8FFEE76405002038B570B10D461446CF
:103AF0000A4A11681831FFF790F80CB14FF0FF3502
:103B000021462846FFF758FD38BD4FF0500383F398
:103B10001188BFF36F8FBFF34F8FFEE7640500205E
:103B200038B5C368DC6824B304F118052846FFF7EC
:103B300098F8184B1B682BBB251D2846FFF791F8FA
:103B4000E06A154B1B68984201D9134B186000EBD3
:103B500080002946114B03EB8000FFF75EF8E26A14
:103B60000F4B1B68DB6A9A4211D901200D4B18607C
:103B700038BD4FF0500383F31188BFF36F8FBFF34D
:103B80004F8FFEE729460848FFF747F8E7E7002090
:103B9000EEE700BFDC090020E409002070050020EA
:103BA00064050020600A00201C0A0020034B1B68EB
:103BB0000360034B1B684360704700BF180A002076
:103BC0005C0A0020F8B5C8B10C460546F9B100F012
:103BD00029FD1B4B19686B68C81A2268B2F1FF3FB8
:103BE00026D0184E36682F68B74201D08B4224D9B0
:103BF000824215D80023236001241AE04FF05003BD
:103C000083F31188BFF36F8FBFF34F8FFEE74FF041
:103C1000500383F31188BFF36F8FBFF34F8FFEE71D
:103C20005B1A134423602846FFF7C0FF002400E01E
:103C3000002400F019FD2046F8BD0124F9E700BF7B
:103C40005C0A0020180A0020014B01221A6070470C
:103C5000600A0020054B1B6833B1054B1B680BB194
:103C6000002070470220704701207047300A002072
:103C7000DC09002000283BD038B504461E4B1B68E9
:103C8000834208D04FF0500383F31188BFF36F8F46
:103C9000BFF34F8FFEE7036D43B94FF0500383F33B
:103CA0001188BFF36F8FBFF34F8FFEE7013B0365B2
:103CB000C16AC26C91421DD00BB1002038BD051DF8
:103CC0002846FEF7CEFFE06CE062C0F13803A36146
:103CD0000A4B1B68984201D9084B186000EB800022
:103CE0002946074B03EB8000FEF797FF0120E5E72D
:103CF000002070470020E1E764050020E40900206F
:103D000070050020064B1A681368B3FA83F35B0949
:103D1000036013B9D368186870470020704700BF6C
:103D2000640A002008B54160006191420CD8D21AA3
:103D300083699A4201D3012008BD011D094B18680F
:103D4000FEF776FF0020F7E79A4201D2994206D2A9
:103D5000011D054B1868FEF76BFF0020ECE7012002
:103D6000EAE700BF680A0020640A002030B583B08B
:103D700000F058FC114B1B681BB100F075FC03B040
:103D800030BD0F4D2846FEF73AFF0E4C2046FEF799
:103D900036FF0D4B1D600D4B1C60002300930C4B38
:103DA0000C4A10210A20FFF762F8044B1860002823
:103DB000E3D00949FFF77EFADFE700BF880B002058
:103DC0000C0B0020200B0020640A0020680A002051
:103DD000380B00206C0A00206CA4000810B588B0D5
:103DE000FFF7C4FF124B1B68CBB100240594069467
:103DF00007AA06A905A800F089FA059B0293069B6D
:103E00000193022300932346079A0A490A48FFF7C1
:103E100011FC0A4B186010B1012008B010BD4FF022
:103E2000500383F31188BFF36F8FBFF34F8FFEE70B
:103E3000880B002074A400081D4100088C0B002092
:103E4000B8B19C4603461848006858B300B585B021
:103E500000910192029305291CDCFFF7FBFE02286A
:103E600010D000231A4669460F480068FFF748F84B
:103E700015E04FF0500383F31188BFF36F8FBFF34A
:103E80004F8FFEE70023069A694607480068FFF750
:103E900037F804E0002362466946FFF7F5F805B0FD
:103EA0005DF804FB00207047880B002070B582B0DD
:103EB0001A4B1B681A6852B3DB681E68DC68251D44
:103EC0002846FEF7CEFE636A20469847E369012B39
:103ED000EED1A36933449E4207D263602461294630
:103EE0000E4B1868FEF7A4FEE2E7002100910B4696
:103EF00032462046FFF7A4FF0028D9D14FF05003E7
:103F000083F31188BFF36F8FBFF34F8FFEE7044A2F
:103F1000106802490860136002B070BD640A002096
:103F2000680A002038B50546FFF748FC0446074BF1
:103F30001B68834205D800232B60044B1C6020467D
:103F400038BDFFF7B3FF01232B60F6E7340B0020E9
:103F500070B582B006460D4614490968C968CC6838
:103F6000201DFEF77EFEE169012904D0636A204628
:103F7000984702B070BDA16933462A4631442046B5
:103F8000FFF7D0FE0028F1D0002100910B46324609
:103F90002046FFF755FF0028E8D14FF0500383F388
:103FA0001188BFF36F8FBFF34F8FFEE7640A0020C5
:103FB00070B582B006460C46FFF7F8FB01A8FFF784
:103FC000B1FF019B2BBB05460CB9B0421AD22CB1F4
:103FD000124B1B681C68B4FA84F464092246711BF6
:103FE0000F4B1868FFF77AF9FFF77AFC98B94FF092
:103FF000E0234FF08052C3F8042DBFF34F8FBFF37F
:104000006F8F08E0FFF76CFC29463046FFF7A0FFF2
:1040100001E0FFF765FC02B070BD00BF680A002038
:10402000880B002010B588B002E0049B002B0FDA4B
:10403000002204A9384B1868FFF78CF8002869D0D3
:10404000049B002BF1DA07990698059B9847ECE74B
:10405000069C636913B1201DFEF703FE03A8FFF75A
:1040600061FF049B092BE3D801A252F823F000BFA3
:104070009940000899400008994000083140000824
:10408000DF400008054100089940000899400008F9
:1040900031400008DF400008059BA1690246194431
:1040A0002046FFF73FFE0028C2D0636A20469847AB
:1040B000E369012BBCD1A269002100910B46059850
:1040C00002442046FFF7BCFE0028B1D14FF0500358
:1040D00083F31188BFF36F8FBFF34F8FFEE705990E
:1040E000A16131B10346024601442046FFF71AFEA2
:1040F0009EE74FF0500383F31188BFF36F8FBFF338
:104100004F8FFEE794F82C30002B91D1204600F021
:10411000E5F98DE708B010BD880B002000B583B02D
:1041200001A8FFF7EFFD0199FFF742FFFFF77AFFC4
:10413000F6E70000EFF3058393B9EFF3108393B92B
:104140000C4B1868022804D080B90A4B01221A606F
:104150007047EFF31183002BF6D06FF00500704726
:104160006FF0050070476FF0050070474FF0FF30AB
:10417000704700BFEC0D002008B5EFF30583B3B91D
:10418000EFF31083B3B90E4B1B68022B08D0012B41
:1041900013D10B4B02221A60FFF7BAFA002008BDB8
:1041A000EFF31182002AF2D06FF00500F7E76FF00D
:1041B0000500F4E76FF00500F1E74FF0FF30EEE7A0
:1041C000EC0D0020F0B587B000240494EFF30584D3
:1041D000002C43D1EFF31083002B3FD1334B1B68EE
:1041E000022B16D0002839D000238DF8173062B387
:1041F000156895B1936903B918235C1E372C51D803
:10420000546814F0010F4FD156694EB14FEA960C25
:1042100008E0EFF311830BBBE4E70DF11705E9E7C5
:104220004FF0800C94682CB1D7685B2F02D91769C6
:1042300007B1B6B914B14FF0FF340CE0D46894B9AB
:1042400014699CB14FF0FF3405E0002418234FF0AF
:10425000800C0DF11705012C0AD0ACB1049807B001
:10426000F0BD0124F7E74FF0FF34F4E70024F2E754
:10427000146992680292019400930B4662462946A3
:10428000FFF7D8F90490E9E704AA019200930B46DE
:104290001FFA8CF22946FFF707FA0128DED0002327
:1042A0000493DBE70020DAE70020D8E7EC0D0020DC
:1042B00008B5EFF30583A3B9EFF31083A3B90C4B53
:1042C0001B68022B02D040B9002008BDEFF3118318
:1042D000002BF8D06FF00500F7E7FFF77DFB00201B
:1042E000F3E76FF00500F0E76FF00500EDE700BFC2
:1042F000EC0D0020034B0360034B0B608023136025
:10430000704700BF900D0020900B0020034B03600E
:10431000034B0B604FF4807313607047F011002063
:10432000F00D0020124A12F0070F1ED0D11D21F00F
:104330000701C1F5406313440A460E48026000219C
:1043400041601344083B23F007030B4803605960A6
:104350001960991A51601360084B1960084B196075
:10436000084B4FF000421A6070474FF44063E4E797
:10437000501200205C1E00204C120020581E00200D
:10438000541E0020501E0020164B1A461B68834204
:10439000FBD3516802EB010C844509D0416800EB66
:1043A000010C634509D00360904219D0106070473A
:1043B0004068014451601046F0E710B40A4C24688C
:1043C000A3420BD05B681944416013681B6803600B
:1043D000904200D010605DF8044B70470460F7E72E
:1043E000704700BF5C1E00204C12002070B50546CF
:1043F000FFF7DCF9344B1B68A3B1344B1B681D423B
:104400004AD135B1083515F0070F02D025F0070560
:104410000835002D42D02E4B1B68AB424DD32D4AA0
:10442000146804E0FFF77EFFE7E722461C46636856
:10443000AB4202D22368002BF7D1234B1B68A34267
:104440003DD0166808362368136063685B1B102B29
:1044500010D9601910F0070F08D04FF0500383F304
:104460001188BFF36F8FBFF34F8FFEE74360656026
:10447000FFF78AFF626816490B689B1A0B601649A2
:1044800009688B4201D214490B60104B1B6813431F
:1044900063600023236002E0002600E00026FFF7AF
:1044A0001FFA16F0070F0CD04FF0500383F311885A
:1044B000BFF36F8FBFF34F8FFEE70026EFE70026B5
:1044C000EDE7304670BD00BF4C120020501E0020AA
:1044D000541E00205C1E0020581E002080B338B5FA
:1044E0000446A0F1080550F8043C164A126813422D
:1044F00008D14FF0500383F31188BFF36F8FBFF3E0
:104500004F8FFEE750F8081C41B14FF0500383F382
:104510001188BFF36F8FBFF34F8FFEE723EA0203CB
:1045200040F8043CFFF742F954F8041C064A1368AB
:104530000B4413602846FFF727FFFFF7D1F938BD7A
:10454000704700BF501E0020541E002082B0002380
:1045500001930D4B1B68B3F1FF3F08D04FF05003A0
:1045600083F31188BFF36F8FBFF34F8FFEE74FF0D8
:10457000500383F31188BFF36F8FBFF34F8F019BFD
:10458000002BFCD002B070470C00002008480068E7
:10459000006880F308884FF0000080F3148862B64A
:1045A00061B6BFF34F8FBFF36F8F00DF00BF000016
:1045B00008ED00E0DFF80C00016841F470010160D3
:1045C0007047000088ED00E04FF0807340F8043C35
:1045D00021F0010140F8081C054B40F80C3C40F864
:1045E000202C6FF0020340F8243C4438704700BF91
:1045F0004D45000800000000000000000000000021
:10460000074B19680868B0E8F04F80F30988BFF3DA
:104610006F8F4FF0000080F311887047AFF3008078
:10462000640500204FF0500383F31188BFF36F8FB0
:10463000BFF34F8F0B4A136801331360012B00D077
:1046400070474FF0E023D3F8043D13F0FF0FF7D08D
:104650004FF0500383F31188BFF36F8FBFF34F8F79
:10466000FEE700BF0C000020094B1B6843B94FF068
:10467000500383F31188BFF36F8FBFF34F8FFEE7B3
:10468000013B034A13600BB983F31188704700BFE5
:104690000C000020000000000000000000000000EE
:1046A000EFF30980BFF36F8F154B1A681EF0100FE0
:1046B00008BF20ED108A20E9F04F10602DE90900B5
:1046C0004FF0500080F31188BFF34F8FBFF36F8F0F
:1046D000FFF7A8F94FF0000080F3118809BC1968B2
:1046E0000868B0E8F04F1EF0100F08BFB0EC108A59
:1046F00080F30988BFF36F8F704700BFAFF300806E
:104700006405002008B54FF0500383F31188BFF310
:104710006F8FBFF34F8FFFF757F828B14FF0E023AB
:104720004FF08052C3F8042D002383F3118808BD95
:104730004FF0E022002313619361054B1B6805498C
:10474000A1FB03139B09013B5361072313617047CE
:1047500008000020D34D62104FF0E023D3F8002D65
:104760003D4B9A421CD04FF0E023D3F8002D3B4B39
:104770009A421ED030B583B0394B1A78D2B201922A
:10478000FF221A701B78DBB28DF803309DF80330DE
:1047900003F05003334A1370334B07221A601BE0B7
:1047A0004FF0500383F31188BFF36F8FBFF34F8F28
:1047B000FEE74FF0500383F31188BFF36F8FBFF311
:1047C0004F8FFEE7284A1368013B13609DF80330C2
:1047D0005B00DBB28DF803309DF8033013F0800FDF
:1047E000F0D1214B1B68032B08D04FF0500383F30B
:1047F0001188BFF36F8FBFF34F8FFEE71B021A4A7A
:10480000136003F4E0631360019BDBB2144A13707E
:104810004FF0E024D4F8203D43F47003C4F8203D69
:10482000D4F8203D43F07043C4F8203DFFF780FFEB
:1048300000250E4B1D60FFF7BDFED4F8343F43F05A
:104840004043C4F8343FFFF7A1FEFFF7EBF8FFF752
:104850007DFE284603B030BD71C20F4170C20F41CA
:1048600000E400E0641E0020681E00200C00002010
:10487000EFF305830F2B0FD9114A9B5CDBB2114A72
:1048800012789A4208D94FF0500383F31188BFF38E
:104890006F8FBFF34F8FFEE74FF0E023D3F80C3D4F
:1048A00003F4E063084A1268934208D94FF05003BA
:1048B00083F31188BFF36F8FBFF34F8FFEE770470D
:1048C000F0E300E0641E0020681E00200220704714
:1048D00002207047F8B510B30C461D46034601B3DD
:1048E0000DB38668016801B3C06808B9964214D94F
:1048F000B0421CD2361A0144B2420BD21044D860E6
:1049000016464FF0FF373246204604F087FE2E60F1
:104910003846F8BD0027DF60F5E70027F3E70927F1
:10492000F6E70927F4E70927F2E70E27F0E709275A
:10493000EEE770B510B31C46034609B314B385689F
:10494000006808B3DE680EB9954215D9AE421DD293
:10495000AD1B3044AA420CD21644DE6015464FF01F
:10496000FF36954214D32A4604F058FE256030469F
:1049700070BD0026DE60F4E70026F2E70926F6E7C0
:104980000926F4E70926F2E70E26F0E70926EEE706
:104990000C26ECE730B5054670B303884BB3013BFA
:1049A0009AB24FF0000E02E001331FFA83FE9645E3
:1049B00013D20EEB0203C3F34F036C6803EB430CFB
:1049C00004EB8C0034F82C408C4215D0ECD913B198
:1049D000013B9AB2EBE71A46E9E70CD16A680EEBA5
:1049E0004E0302EB830032F823308B4204D00020C8
:1049F00002E0002000E0002030BD000000286BD065
:104A000030B584464568002D68D0002A68D0C0784B
:104A100000F00F0002280ED0032825D0012801D075
:104A2000092030BD00295DD12879107428681060F4
:104A3000A868906031E09CF80200884254D931B9EE
:104A4000287A1074286810600120906025E0687A48
:104A50001074686820B12C6901F1FF3E0EFB040060
:104A60001060E868906018E000209CF802408442E2
:104A70000AD900EB400405EB840494F804E08E4569
:104A800003D00130C0B2F0E70024002C2ED06079B2
:104A9000107420681060A0689060DCF8080000B115
:104AA0004BB1134B5361134B9361002353600020B0
:104AB000D0605174B5E7436853B15361DCF80830F6
:104AC0009B683BB19361DCF808301B685360EEE7EC
:104AD000094BF2E7094BF5E7052070470520A0E7F1
:104AE00009209EE70E209CE70E209AE70E2098E70B
:104AF000D548000833490008CD480008D1480008CF
:104B0000C3B2192B03D8034B53F820007047024857
:104B1000704700BF7CA4000847000406AAB130B566
:104B200089B01C461546002300930C9B01AAFFF791
:104B300065FF40B9039BA34209D16B462246294633
:104B400001A8069CA04709B030BD092070470B2082
:104B5000F9E730B589B015461C46002300930C9B3D
:104B600001AAFFF74BFF40B9039BA34207D16B4655
:104B70002246294601A8079CA04709B030BD0B205A
:104B8000FBE730B589B015461C46012301AAFFF7A3
:104B900035FF034658B9019A32B1039A32B135B1A3
:104BA000AA4204D00B2302E0092300E0092304B148
:104BB000237013B9019809B030BD0020FBE70B79D1
:104BC00091F805C08A79022B00D0704712B1C378E2
:104BD0009342FAD180F802C0F7E7A8B18446407C3E
:104BE000A0B9A9B1022A15D1B3B110B5DCF80440BF
:104BF00008884FF47A7E0EFB00F0A0600020E06091
:104C00006046FFF796FE10BD0920704709207047E7
:104C10000920704709207047092070472DE9F043AB
:104C200087B0DDF84080DDF84C9000286AD00D4652
:104C300016461F460446002967D0002A68D0B8F1FE
:104C4000000F68D0B9F1000F68D02C22002104F0C9
:104C50000DFDE770BDF83830A3802662BDF83C300A
:104C60004FF47A7202FB03F3E36001230093022303
:104C70000DF1160200212846FFF750FF38BBBDF8A2
:104C800016304FF47A7202FB03F3A3602461254BC4
:104C90006361254BA36104F11003AB60E268A36874
:104CA0009A4200D9E360214B0293019400230093C0
:104CB00040F2FF73BDF84820BDF84410404603F0B1
:104CC000E9FB054658B1284607B0BDE8F083169BBE
:104CD00013B12B88169A13606FF00B05F3E7C4F835
:104CE00024900023019301220092BDF85420BDF8C6
:104CF0005010484603F008FCA0620028E3D14FF0B2
:104D0000FF35E0E74FF0FF35DDE74FF0FF35DAE73D
:104D10004FF0FF35D7E74FF0FF35D4E74FF0FF35C1
:104D2000D1E700BFD5480008DB4B0008BF4B0008A7
:104D300070B504460E4690F90050C368934201D9FD
:104D40009B1A00E00023E36035B1A2689AB11BB161
:104D500094F90130AB420ED0A36A5D71A16A606A1A
:104D600003F0F5FB2DB9A38813F4807F0FD0052540
:104D700001E0A368E3606570A07890B1802823D03B
:104D800007D9812828D0822828D1012007E07F2553
:104D9000F1E701281BD002281CD1002004250023A4
:104DA000A370A38813F4805F1AD0226A32B391787B
:104DB00011F0040F24D1D27812F0080F22D112F092
:104DC000100F21D100220CE000207F25E7E7002012
:104DD0000525E4E70020E2E70220E0E70020DEE727
:104DE0000022114613F4005F14D0226A72B1D26817
:104DF00072B112781A400ED001220CE00122F0E7C5
:104E00000122EEE70122ECE70122EAE70022F1E7C6
:104E10000022EFE70022052D06D013F4004F0BD13E
:104E2000257006B1357070BD09B9002AF5D013F4AC
:104E3000804F09D00425F3E77F2DF1D10029EFD170
:104E4000002AEDD10525EBE77F25E9E70B79012B5A
:104E500000D0704791F9053043700123C360F8E733
:104E60002DE9F04389B0002859D00C4616461F465C
:104E7000054690F80890894554D903B182BB6B6808
:104E80004FEA041C03EB041003F80C604FF47A7330
:104E900007FB03F38360FF2242700022C2603EB32F
:104EA00033B306F5E0620123837024E00CF1010CBA
:104EB0005FFA8CFCE14517D96B6803EB0C1E9EE88A
:104EC0000F000DF1200E0EE90F00A445EED0002AD0
:104ED000ECD09DF81030B342E8D16FF00B08E5E755
:104EE0004FF0000CE046E5E7B8F1000F13D1C6E73C
:104EF000002282608270A98B6B68634421440B4856
:104F0000029001930023009340F2FF7389B2A869D5
:104F100003F0C0FA8046404609B0BDE8F0834FF088
:104F2000FF38F8E74FF0FF38F5E700BF4D4E0008B7
:104F3000F8B504464068DCB10D4617461E46C9B1B7
:104F4000617CC9B1037A994218D8042A18D1CEB12C
:104F50002A68013993B2C2F30742C9B2FFF780FF52
:104F600090B933463A4629462046FFF7E2FC04E072
:104F7000092002E0092000E00920F8BD0920FCE733
:104F80000920FAE70920F8E70820F6E72DE9F047BD
:104F900084B00C9FDDF834A0DDF83C8000285AD0A6
:104FA000894615461C460646002957D0002A58D087
:104FB000002F59D0BAF1000F59D03022002104F04F
:104FC00055FBC6F800907560C6F818A0BDF83830DB
:104FD000B383BB78A34201D8013BDCB23472002515
:104FE0000CE0B8F1000F02D03B88C8F800306FF039
:104FF0000B032CE013F10C0F29D12546337AAB4279
:105000001DD96C1CE4B201230093042303AA21469A
:105010003846FFF783FD0028E3D1039A93B2C2F329
:10502000074229463046FFF71BFF03460028E4D01D
:10503000B8F1000FDED03A88C8F80020DAE736620F
:105040000C4B73620C4BB3622036BE6000231846D3
:1050500004B0BDE8F0874FF0FF33F8E74FF0FF33BF
:10506000F5E74FF0FF33F2E74FF0FF33EFE74FF094
:10507000FF33ECE7D5480008314F00082DE9F04F29
:1050800083B004460F4619B191464369002B52D1B3
:10509000002F67D16369002B66D14FF00108C2462B
:1050A00067E00123AB704B460022EA60AA78022A2F
:1050B0002DD0AB78022B01D04FF0000A95F90130CA
:1050C000052B01D04FF000080136F6B2237AB34227
:1050D0004FD96568B34605EB0615AB78002BF3D0C6
:1050E000EA6892B195F9012052B9022BD9D1009604
:1050F00048F230131C220121206800F083F9D0E728
:105100000223AB7000236B60CEE74B46CEE76A68A4
:1051100013446B60AA689342CBD3CDF800B048F239
:1051200030131B220121206800F06CF9FF236B7003
:105130000323AB70BDE700264FF00108C246C5E768
:105140000132D2B2237A934210D9636803EB02137F
:10515000FF2159700021D96099780029F0D00121F0
:105160009970EDE70022EDE70022EBE74FF0000831
:10517000C246E36813B9BAF1000F07D1C4F80CA016
:10518000C4F81080676103B0BDE8F08F002500957A
:105190002B461B222946206800F034F900952B4647
:1051A0001C222946206800F02DF9E7E78446C0B1AB
:1051B000407CC0B9C9B1032A19D9D3B1DCF80400C5
:1051C000426A5AB14FF0000C90F82820803242EA2F
:1051D0000C020A6004221A60002070474FF0004C55
:1051E000F2E709207047092070470920704709201D
:1051F00070470920704780B3844681B38BB3032A7C
:1052000001D8407C78BB82B310B5DCF8040090F87C
:105210001CE0BEF1010F2AD99CF8114094B190F81E
:105220002020944225D8427F121B94B2002A10DB22
:10523000724520DA806950F832200A6004221A6030
:10524000002010BD90F820200A7001221A60002072
:10525000F7E70EEB040212B2ECE7092070470920D1
:1052600070470920704709207047092070470920BE
:10527000E7E71920E5E70920E3E7844670B1407CC1
:1052800070B979B1012A0FD183B10A7882B9DCF8FB
:10529000042082F8200001221A607047092070471C
:1052A000092070470920704709207047092070477E
:1052B0000F2070472DE9F04F85B09DF838B0DDF82C
:1052C0003C90DDF844A09DF84880002874D00D463D
:1052D00016461F460446002A71D0002B5ED0B9F155
:1052E000000F6FD0002D70D0B8F1000F70D018F003
:1052F000800F70D1BAF1000F70D0502200212046EB
:1053000004F0B4F965610023012219463046FFF725
:1053100038FCE060002847D000210170A76184F8C4
:105320001CB001230093042303AA4846FFF7F6FBB1
:10533000024618B92E4B03990B403BB1139B1BB18E
:10534000B9F8003013990B60002A4AD1039BDB4364
:10535000DB0F63622463274B6363274BA36304F172
:105360003003C9F8083084F828800023019308220C
:10537000009208F18002BDF84010284603F0C4F8FE
:10538000E06288B324641D4B63641D4BA364403406
:10539000CAF80840002005B0BDE8F08FBBF1010F4E
:1053A0009DD94FF0FF30F6E7139B13B13388139A62
:1053B00013606FF00B00EEE74FF0FF30EBE74FF0BC
:1053C000FF30E8E74FF0FF30E5E74FF0FF30E2E76E
:1053D0004FF0FF30DFE74FF0FF30DCE74FF0FF30FA
:1053E000D9E76FF00B00D6E74FF0FF30D3E700BFEF
:1053F00000F8FF7FAD51000833490008F75100085D
:105400007B52000800285DD030B58446D40802F0F5
:1054100007050120A840C0B24F2A04D903920120F9
:1054200005244FF4C24325461CF804E00EEA0004AC
:10543000A9B3002C45D143EA0262DCF81430EFF343
:1054400010841C6372B669B31CF8053018430CF85D
:1054500005009CF81C1001292ED99CF81D00431C46
:10546000DBB2994200D800239CF81E10994220D04C
:10547000DCF8181041F83020DCF8182002EBC002EC
:10548000039951608CF81D309CF820209CF81C304A
:10549000013B9A4210DA01328CF820200CE084B1F2
:1054A0000023C8E71CF8053023EA00000CF80500CB
:1054B000CFE701238CF81F30DCF814301B6B83F32B
:1054C000108830BD7047F0B583B004460F4643697D
:1054D0005E8A058AB54217D07540068240F20113F4
:1054E0001D422CD115F0020F35D115F0040F3DD11E
:1054F00015F0080F45D115F0800F4DD115F4007F40
:1055000055D115F4006F5DD1637903B10123628831
:105510000AB143F0100322890AB143F08003E26824
:10552000137057B1227F012A07D9A57F627FAA4253
:1055300003D0E26A1269002A4ED003B0F0BD1E42C9
:105540004FF0000300934FF0010214BF11461946BB
:10555000FFF758FFC6E70023009348F22013072205
:10556000C6F340012046FFF74DFFBEE7002300933E
:1055700048F240131222C6F380012046FFF742FF93
:10558000B6E70023009348F210131422C6F3C001BB
:105590002046FFF737FFAEE7002300934FF40143A7
:1055A0001522C6F3C0112046FFF72CFFA6E7002303
:1055B000009348F220130622C6F340212046FFF74D
:1055C00021FF9EE70023009313231A46C6F3C02150
:1055D0002046FFF717FF97E7A16951F8352042EA07
:1055E000034341F83530E36AA26902EBC50052F883
:1055F00035104268C3F80510C3F80920E16A6069F4
:1056000002F0A5FF0135EDB2237FAB4200D80025A3
:10561000A577E37F012B0DD0022B8ED1637FAB42A8
:105620008BD10021E17700910B4620222046FFF725
:10563000E9FE82E70223E377002300934FF48053CF
:10564000202201212046FFF7DDFE76E72DE9F0411B
:1056500084B00546084611461F460A9A0B9EEB6C1D
:1056600093420CD0EA642E65002A0DDB92B2002E24
:105670000CDBB6B262B15EB101232B610BE02B6D86
:10568000B342EFD100241EE00022F0E70026F1E74C
:1056900000222A611646104B029301954FF0000834
:1056A000CDF8008040F2FF7302F0F4FE0446CDF81E
:1056B000048008230093434632463946286802F0A6
:1056C00023FF686018B1204604B0BDE8F081C5F83A
:1056D00010804FF0FF34F6E78D580008002800F0E6
:1056E000A780F0B583B00C4617461E460546002934
:1056F00000F0A080002B00F09F804068697C0329A7
:1057000000F29C80DFE801F002054787042003B027
:10571000F0BDD4F800C01FFA8CFECCF30A01B0F83B
:105720004C30C3F30A02584B0CEA0303002B40F041
:105730008780BCF1000F04DB036913B1914240F094
:105740008180BCF1000F19DB1EF4F06F7CD0A1F258
:1057500001139BB27F2B79D9A1F281539BB27E2B8F
:1057600076D9A1F201639BB27E2B73D9A1F5DC63DC
:105770009BB21F2B70D9B1F5E06F6FD8B0F84AE03B
:10578000B0F84820416C036D0193CDF800C073461A
:10579000FFF75CFF45E0D4F800C01FFA8CFECCF3A5
:1057A0000A01B0F85030C3F30A02374B0CEA030386
:1057B000002B55D1BCF1000F03DB03690BB1914203
:1057C00050D1BCF1000F19DB1EF4F06F4CD0A1F2E8
:1057D00001139BB27F2B49D9A1F281539BB27E2B3F
:1057E00046D9A1F201639BB27E2B43D9A1F5DC63BC
:1057F0009BB21F2B40D9B1F5E06F3FD8B0F84AE01B
:10580000B0F84820416CCDF804C0C36C00937346D7
:10581000FFF71CFF05E0012A32D194F90030002B7C
:1058200030DD33463A4621462846FFF782F86EE7D8
:105830000920704709206AE7092068E70E2066E71B
:105840000F2064E70F2062E70F2060E70F205EE77C
:105850000F205CE70F205AE70F2058E70F2056E78C
:105860000F2054E70F2052E70F2050E70F204EE79C
:105870000F204CE70F204AE70F2048E70F2046E7AC
:105880000B2044E70F2042E700F8FF3F0A79082A7F
:1058900000D0704710B504464B1D4979802902D0CD
:1058A000816B19B110BD00230375FBE719463C302D
:1058B00003F0B4FE0123A363F4E70000F0B583B066
:1058C00004460D46D0F8A020006F002841D0636E3A
:1058D0005BB1A16E8B4208D005D2474B2B600123F0
:1058E0002375002086E0454BF8E7236A94F92810D9
:1058F000002903DB0BBBA36E23622FE013B1A16E63
:105900009942F7D2911C2029F4D8501CC4F8A00069
:105910002244002682F87C60A26E0132A2660BB19E
:105920009A4207D2C4F8A0102044002380F87C30AB
:105930000132A266A36E236210E0A26E9A420DD0DD
:1059400005D92D4B2B6001232375002052E02B4BF2
:10595000F8E7636E13B1A26E93422ED30023019336
:1059600014F118002ED094F8283013F03C0F2BD1EE
:1059700000231E4623B12368EFF310825A6372B6E8
:1059800001ABD4F8A02004F17C01276BB847034693
:105990001EB12268526B82F310880022C4F8A02046
:1059A0005A1CD2B2012A11D8206F10B1B3F1FF3FB7
:1059B00014D0F0B9C3B101201CE00F4B0B600123E0
:1059C000237517E00023D4E70123D2E71846FFF739
:1059D00097F828600123237500200BE0074B2B600C
:1059E00001232375002005E0034B2B600123237561
:1059F00000E0012003B0F0BD120007061300070607
:105A00002DE9F04F85B00191D0F8A070D0F8A480B6
:105A1000A7EB0809056F002D75D104461646914580
:105A200001D3012570E000F17C0A4A460AEB080127
:105A3000504603F001FE0023C4F8A430C4F8A0903F
:105A4000A8EB0702203203930AEB090814F11800AF
:105A50002ED094F8283013F03C0F2BD100239A4617
:105A600023B12368EFF31081596372B603AB41464B
:105A7000E76AB8478346BAF1000F03D023685B6B2F
:105A800083F310880BF10103DBB2012B14D8039BC5
:105A90001BB194F92820002A16DB039B4B44C4F861
:105AA000A03023B3BBF1FF3F21D00123236722E0C5
:105AB0000023D4E70123D2E75846FFF721F8019BE2
:105AC0001860012323751FE0002208F803204046D8
:105AD000FAF77EFB034600B90123039A9A42DCD908
